{
  "abi": [
    {
      "anonymous": false,
      "inputs": [
        {
          "indexed": false,
          "internalType": "uint256",
          "name": "x",
          "type": "uint256"
        }
      ],
      "name": "upload",
      "type": "event"
    },
    {
      "inputs": [],
      "name": "_produceFirstPrize",
      "outputs": [
        {
          "internalType": "address",
          "name": "",
          "type": "address"
        }
      ],
      "stateMutability": "view",
      "type": "function"
    },
    {
      "inputs": [],
      "name": "_producePrize",
      "outputs": [],
      "stateMutability": "nonpayable",
      "type": "function"
    },
    {
      "inputs": [],
      "name": "_produceSecondPrize",
      "outputs": [
        {
          "internalType": "address",
          "name": "",
          "type": "address"
        },
        {
          "internalType": "address",
          "name": "",
          "type": "address"
        }
      ],
      "stateMutability": "view",
      "type": "function"
    },
    {
      "inputs": [],
      "name": "_produceThirdPrize",
      "outputs": [
        {
          "internalType": "address",
          "name": "",
          "type": "address"
        },
        {
          "internalType": "address",
          "name": "",
          "type": "address"
        },
        {
          "internalType": "address",
          "name": "",
          "type": "address"
        }
      ],
      "stateMutability": "view",
      "type": "function"
    },
    {
      "inputs": [],
      "name": "_winnerNumber",
      "outputs": [
        {
          "internalType": "uint256[7]",
          "name": "",
          "type": "uint256[7]"
        }
      ],
      "stateMutability": "nonpayable",
      "type": "function"
    },
    {
      "inputs": [
        {
          "internalType": "address",
          "name": "",
          "type": "address"
        }
      ],
      "name": "addressToName",
      "outputs": [
        {
          "internalType": "string",
          "name": "",
          "type": "string"
        }
      ],
      "stateMutability": "view",
      "type": "function"
    },
    {
      "inputs": [
        {
          "internalType": "uint256",
          "name": "",
          "type": "uint256"
        }
      ],
      "name": "countToPeople",
      "outputs": [
        {
          "internalType": "address",
          "name": "",
          "type": "address"
        }
      ],
      "stateMutability": "view",
      "type": "function"
    },
    {
      "inputs": [
        {
          "internalType": "uint256",
          "name": "",
          "type": "uint256"
        }
      ],
      "name": "levelToName",
      "outputs": [
        {
          "internalType": "string",
          "name": "",
          "type": "string"
        }
      ],
      "stateMutability": "view",
      "type": "function"
    },
    {
      "inputs": [
        {
          "internalType": "uint256",
          "name": "",
          "type": "uint256"
        }
      ],
      "name": "people",
      "outputs": [
        {
          "internalType": "string",
          "name": "name",
          "type": "string"
        }
      ],
      "stateMutability": "view",
      "type": "function"
    },
    {
      "inputs": [
        {
          "internalType": "string",
          "name": "_name",
          "type": "string"
        }
      ],
      "name": "rigister",
      "outputs": [],
      "stateMutability": "payable",
      "type": "function"
    }
  ],
  "devdoc": {
    "kind": "dev",
    "methods": {},
    "version": 1
  },
  "evm": {
    "assembly": "    /* \"./contracts/Main.sol\":57:3120  contract raffle {... */\n  mstore(0x40, 0x80)\n    /* \"./contracts/Main.sol\":178:179  7 */\n  0x07\n    /* \"./contracts/Main.sol\":163:179  uint modulus = 7 */\n  0x01\n  sstore\n    /* \"./contracts/Main.sol\":190:215  uint[3] level = [1, 2, 3] */\n  mload(0x40)\n  dup1\n  0x60\n  add\n  0x40\n  mstore\n  dup1\n    /* \"./contracts/Main.sol\":207:208  1 */\n  0x01\n    /* \"./contracts/Main.sol\":190:215  uint[3] level = [1, 2, 3] */\n  0xff\n  and\n  dup2\n  mstore\n  0x20\n  add\n    /* \"./contracts/Main.sol\":210:211  2 */\n  0x02\n    /* \"./contracts/Main.sol\":190:215  uint[3] level = [1, 2, 3] */\n  0xff\n  and\n  dup2\n  mstore\n  0x20\n  add\n    /* \"./contracts/Main.sol\":213:214  3 */\n  0x03\n    /* \"./contracts/Main.sol\":190:215  uint[3] level = [1, 2, 3] */\n  0xff\n  and\n  dup2\n  mstore\n  pop\n  0x02\n  swap1\n  0x03\n  tag_1\n  swap3\n  swap2\n  swap1\n  tag_2\n  jump\t// in\ntag_1:\n  pop\n    /* \"./contracts/Main.sol\":450:451  0 */\n  0x00\n    /* \"./contracts/Main.sol\":437:451  uint count = 0 */\n  0x08\n  sstore\n    /* \"./contracts/Main.sol\":470:471  0 */\n  0x00\n    /* \"./contracts/Main.sol\":457:471  uint nonce = 0 */\n  0x09\n  sstore\n    /* \"./contracts/Main.sol\":57:3120  contract raffle {... */\n  callvalue\n  dup1\n  iszero\n  tag_3\n  jumpi\n  0x00\n  dup1\n  revert\ntag_3:\n  pop\n  jump(tag_4)\ntag_2:\n  dup3\n  0x03\n  dup2\n  add\n  swap3\n  dup3\n  iszero\n  tag_5\n  jumpi\n  swap2\n  0x20\n  mul\n  dup3\n  add\ntag_6:\n  dup3\n  dup2\n  gt\n  iszero\n  tag_7\n  jumpi\n  dup3\n  mload\n  dup3\n  swap1\n  0xff\n  and\n  swap1\n  sstore\n  swap2\n  0x20\n  add\n  swap2\n  swap1\n  0x01\n  add\n  swap1\n  jump(tag_6)\ntag_7:\ntag_5:\n  pop\n  swap1\n  pop\n  tag_8\n  swap2\n  swap1\n  tag_9\n  jump\t// in\ntag_8:\n  pop\n  swap1\n  jump\t// out\ntag_9:\ntag_10:\n  dup1\n  dup3\n  gt\n  iszero\n  tag_11\n  jumpi\n  0x00\n  dup2\n  0x00\n  swap1\n  sstore\n  pop\n  0x01\n  add\n  jump(tag_10)\ntag_11:\n  pop\n  swap1\n  jump\t// out\ntag_4:\n  dataSize(sub_0)\n  dup1\n  dataOffset(sub_0)\n  0x00\n  codecopy\n  0x00\n  return\nstop\n\nsub_0: assembly {\n        /* \"./contracts/Main.sol\":57:3120  contract raffle {... */\n      mstore(0x40, 0x80)\n      jumpi(tag_1, lt(calldatasize, 0x04))\n      shr(0xe0, calldataload(0x00))\n      dup1\n      0x7d06cfda\n      gt\n      tag_12\n      jumpi\n      dup1\n      0x7d06cfda\n      eq\n      tag_7\n      jumpi\n      dup1\n      0x9e7a13ad\n      eq\n      tag_8\n      jumpi\n      dup1\n      0xe2a04b62\n      eq\n      tag_9\n      jumpi\n      dup1\n      0xeb6b3a33\n      eq\n      tag_10\n      jumpi\n      dup1\n      0xfc81312a\n      eq\n      tag_11\n      jumpi\n      jump(tag_1)\n    tag_12:\n      dup1\n      0x36c8a4e1\n      eq\n      tag_2\n      jumpi\n      dup1\n      0x3738fc6b\n      eq\n      tag_3\n      jumpi\n      dup1\n      0x6132b3f7\n      eq\n      tag_4\n      jumpi\n      dup1\n      0x64d5756b\n      eq\n      tag_5\n      jumpi\n      dup1\n      0x6b3c4cff\n      eq\n      tag_6\n      jumpi\n    tag_1:\n      0x00\n      dup1\n      revert\n        /* \"./contracts/Main.sol\":223:266  mapping (uint => string) public levelToName */\n    tag_2:\n      callvalue\n      dup1\n      iszero\n      tag_13\n      jumpi\n      0x00\n      dup1\n      revert\n    tag_13:\n      pop\n      tag_14\n      0x04\n      dup1\n      calldatasize\n      sub\n      dup2\n      add\n      swap1\n      tag_15\n      swap2\n      swap1\n      tag_16\n      jump\t// in\n    tag_15:\n      tag_17\n      jump\t// in\n    tag_14:\n      mload(0x40)\n      tag_18\n      swap2\n      swap1\n      tag_19\n      jump\t// in\n    tag_18:\n      mload(0x40)\n      dup1\n      swap2\n      sub\n      swap1\n      return\n        /* \"./contracts/Main.sol\":2877:3115  function _produceFirstPrize() public view returns(address) {//一等奖的人及地址... */\n    tag_3:\n      callvalue\n      dup1\n      iszero\n      tag_20\n      jumpi\n      0x00\n      dup1\n      revert\n    tag_20:\n      pop\n      tag_21\n      tag_22\n      jump\t// in\n    tag_21:\n      mload(0x40)\n      tag_23\n      swap2\n      swap1\n      tag_24\n      jump\t// in\n    tag_23:\n      mload(0x40)\n      dup1\n      swap2\n      sub\n      swap1\n      return\n        /* \"./contracts/Main.sol\":616:1345  function rigister(string memory _name) public payable {... */\n    tag_4:\n      tag_25\n      0x04\n      dup1\n      calldatasize\n      sub\n      dup2\n      add\n      swap1\n      tag_26\n      swap2\n      swap1\n      tag_27\n      jump\t// in\n    tag_26:\n      tag_28\n      jump\t// in\n    tag_25:\n      stop\n        /* \"./contracts/Main.sol\":2455:2871  function _produceThirdPrize() public view returns(address, address, address) {//三等奖的人及地址... */\n    tag_5:\n      callvalue\n      dup1\n      iszero\n      tag_29\n      jumpi\n      0x00\n      dup1\n      revert\n    tag_29:\n      pop\n      tag_30\n      tag_31\n      jump\t// in\n    tag_30:\n      mload(0x40)\n      tag_32\n      swap4\n      swap3\n      swap2\n      swap1\n      tag_33\n      jump\t// in\n    tag_32:\n      mload(0x40)\n      dup1\n      swap2\n      sub\n      swap1\n      return\n        /* \"./contracts/Main.sol\":1812:2122  function _winnerNumber() public returns (uint[7] memory){//生成1000人里面获奖数字... */\n    tag_6:\n      callvalue\n      dup1\n      iszero\n      tag_34\n      jumpi\n      0x00\n      dup1\n      revert\n    tag_34:\n      pop\n      tag_35\n      tag_36\n      jump\t// in\n    tag_35:\n      mload(0x40)\n      tag_37\n      swap2\n      swap1\n      tag_38\n      jump\t// in\n    tag_37:\n      mload(0x40)\n      dup1\n      swap2\n      sub\n      swap1\n      return\n        /* \"./contracts/Main.sol\":272:318  mapping (uint => address) public countToPeople */\n    tag_7:\n      callvalue\n      dup1\n      iszero\n      tag_39\n      jumpi\n      0x00\n      dup1\n      revert\n    tag_39:\n      pop\n      tag_40\n      0x04\n      dup1\n      calldatasize\n      sub\n      dup2\n      add\n      swap1\n      tag_41\n      swap2\n      swap1\n      tag_16\n      jump\t// in\n    tag_41:\n      tag_42\n      jump\t// in\n    tag_40:\n      mload(0x40)\n      tag_43\n      swap2\n      swap1\n      tag_24\n      jump\t// in\n    tag_43:\n      mload(0x40)\n      dup1\n      swap2\n      sub\n      swap1\n      return\n        /* \"./contracts/Main.sol\":134:156  People[] public people */\n    tag_8:\n      callvalue\n      dup1\n      iszero\n      tag_44\n      jumpi\n      0x00\n      dup1\n      revert\n    tag_44:\n      pop\n      tag_45\n      0x04\n      dup1\n      calldatasize\n      sub\n      dup2\n      add\n      swap1\n      tag_46\n      swap2\n      swap1\n      tag_16\n      jump\t// in\n    tag_46:\n      tag_47\n      jump\t// in\n    tag_45:\n      mload(0x40)\n      tag_48\n      swap2\n      swap1\n      tag_19\n      jump\t// in\n    tag_48:\n      mload(0x40)\n      dup1\n      swap2\n      sub\n      swap1\n      return\n        /* \"./contracts/Main.sol\":362:410  mapping (address => string) public addressToName */\n    tag_9:\n      callvalue\n      dup1\n      iszero\n      tag_49\n      jumpi\n      0x00\n      dup1\n      revert\n    tag_49:\n      pop\n      tag_50\n      0x04\n      dup1\n      calldatasize\n      sub\n      dup2\n      add\n      swap1\n      tag_51\n      swap2\n      swap1\n      tag_52\n      jump\t// in\n    tag_51:\n      tag_53\n      jump\t// in\n    tag_50:\n      mload(0x40)\n      tag_54\n      swap2\n      swap1\n      tag_19\n      jump\t// in\n    tag_54:\n      mload(0x40)\n      dup1\n      swap2\n      sub\n      swap1\n      return\n        /* \"./contracts/Main.sol\":2128:2449  function _produceSecondPrize() public view returns(address, address) {//二等奖的人及地址... */\n    tag_10:\n      callvalue\n      dup1\n      iszero\n      tag_55\n      jumpi\n      0x00\n      dup1\n      revert\n    tag_55:\n      pop\n      tag_56\n      tag_57\n      jump\t// in\n    tag_56:\n      mload(0x40)\n      tag_58\n      swap3\n      swap2\n      swap1\n      tag_59\n      jump\t// in\n    tag_58:\n      mload(0x40)\n      dup1\n      swap2\n      sub\n      swap1\n      return\n        /* \"./contracts/Main.sol\":1369:1806  function _producePrize() public {... */\n    tag_11:\n      callvalue\n      dup1\n      iszero\n      tag_60\n      jumpi\n      0x00\n      dup1\n      revert\n    tag_60:\n      pop\n      tag_61\n      tag_62\n      jump\t// in\n    tag_61:\n      stop\n        /* \"./contracts/Main.sol\":223:266  mapping (uint => string) public levelToName */\n    tag_17:\n      mstore(0x20, 0x05)\n      dup1\n      0x00\n      mstore\n      keccak256(0x00, 0x40)\n      0x00\n      swap2\n      pop\n      swap1\n      pop\n      dup1\n      sload\n      tag_63\n      swap1\n      tag_64\n      jump\t// in\n    tag_63:\n      dup1\n      0x1f\n      add\n      0x20\n      dup1\n      swap2\n      div\n      mul\n      0x20\n      add\n      mload(0x40)\n      swap1\n      dup2\n      add\n      0x40\n      mstore\n      dup1\n      swap3\n      swap2\n      swap1\n      dup2\n      dup2\n      mstore\n      0x20\n      add\n      dup3\n      dup1\n      sload\n      tag_65\n      swap1\n      tag_64\n      jump\t// in\n    tag_65:\n      dup1\n      iszero\n      tag_66\n      jumpi\n      dup1\n      0x1f\n      lt\n      tag_67\n      jumpi\n      0x0100\n      dup1\n      dup4\n      sload\n      div\n      mul\n      dup4\n      mstore\n      swap2\n      0x20\n      add\n      swap2\n      jump(tag_66)\n    tag_67:\n      dup3\n      add\n      swap2\n      swap1\n      0x00\n      mstore\n      keccak256(0x00, 0x20)\n      swap1\n    tag_68:\n      dup2\n      sload\n      dup2\n      mstore\n      swap1\n      0x01\n      add\n      swap1\n      0x20\n      add\n      dup1\n      dup4\n      gt\n      tag_68\n      jumpi\n      dup3\n      swap1\n      sub\n      0x1f\n      and\n      dup3\n      add\n      swap2\n    tag_66:\n      pop\n      pop\n      pop\n      pop\n      pop\n      dup2\n      jump\t// out\n        /* \"./contracts/Main.sol\":2877:3115  function _produceFirstPrize() public view returns(address) {//一等奖的人及地址... */\n    tag_22:\n        /* \"./contracts/Main.sol\":2927:2934  address */\n      0x00\n        /* \"./contracts/Main.sol\":2972:3007  address[1] memory firstPrizeAddress */\n      tag_70\n      tag_71\n      jump\t// in\n    tag_70:\n        /* \"./contracts/Main.sol\":3044:3062  prizeWinnerAddress */\n      0x0a\n        /* \"./contracts/Main.sol\":3063:3064  0 */\n      0x00\n        /* \"./contracts/Main.sol\":3044:3065  prizeWinnerAddress[0] */\n      0x07\n      dup2\n      lt\n      tag_72\n      jumpi\n      mstore(0x00, 0x4e487b7100000000000000000000000000000000000000000000000000000000)\n      mstore(0x04, 0x32)\n      revert(0x00, 0x24)\n    tag_72:\n      add\n      0x00\n      swap1\n      sload\n      swap1\n      0x0100\n      exp\n      swap1\n      div\n      0xffffffffffffffffffffffffffffffffffffffff\n      and\n        /* \"./contracts/Main.sol\":3021:3038  firstPrizeAddress */\n      dup2\n        /* \"./contracts/Main.sol\":3039:3040  0 */\n      0x00\n        /* \"./contracts/Main.sol\":3021:3041  firstPrizeAddress[0] */\n      0x01\n      dup2\n      lt\n      tag_74\n      jumpi\n      mstore(0x00, 0x4e487b7100000000000000000000000000000000000000000000000000000000)\n      mstore(0x04, 0x32)\n      revert(0x00, 0x24)\n    tag_74:\n      0x20\n      mul\n      add\n        /* \"./contracts/Main.sol\":3021:3065  firstPrizeAddress[0] = prizeWinnerAddress[0] */\n      swap1\n      0xffffffffffffffffffffffffffffffffffffffff\n      and\n      swap1\n      dup2\n      0xffffffffffffffffffffffffffffffffffffffff\n      and\n      dup2\n      mstore\n      pop\n      pop\n        /* \"./contracts/Main.sol\":3087:3104  firstPrizeAddress */\n      dup1\n        /* \"./contracts/Main.sol\":3105:3106  0 */\n      0x00\n        /* \"./contracts/Main.sol\":3087:3107  firstPrizeAddress[0] */\n      0x01\n      dup2\n      lt\n      tag_75\n      jumpi\n      mstore(0x00, 0x4e487b7100000000000000000000000000000000000000000000000000000000)\n      mstore(0x04, 0x32)\n      revert(0x00, 0x24)\n    tag_75:\n      0x20\n      mul\n      add\n      mload\n        /* \"./contracts/Main.sol\":3079:3108  return (firstPrizeAddress[0]) */\n      swap2\n      pop\n      pop\n        /* \"./contracts/Main.sol\":2877:3115  function _produceFirstPrize() public view returns(address) {//一等奖的人及地址... */\n      swap1\n      jump\t// out\n        /* \"./contracts/Main.sol\":616:1345  function rigister(string memory _name) public payable {... */\n    tag_28:\n        /* \"./contracts/Main.sol\":696:706  0.01 ether */\n      0x2386f26fc10000\n        /* \"./contracts/Main.sol\":684:693  msg.value */\n      callvalue\n        /* \"./contracts/Main.sol\":684:706  msg.value > 0.01 ether */\n      gt\n        /* \"./contracts/Main.sol\":680:826  if (msg.value > 0.01 ether) {... */\n      iszero\n      tag_77\n      jumpi\n        /* \"./contracts/Main.sol\":722:742  address payable addr */\n      0x00\n        /* \"./contracts/Main.sol\":753:763  msg.sender */\n      caller\n        /* \"./contracts/Main.sol\":722:764  address payable addr = payable(msg.sender) */\n      swap1\n      pop\n        /* \"./contracts/Main.sol\":778:782  addr */\n      dup1\n        /* \"./contracts/Main.sol\":778:791  addr.transfer */\n      0xffffffffffffffffffffffffffffffffffffffff\n      and\n        /* \"./contracts/Main.sol\":778:815  addr.transfer(msg.value - 0.01 ether) */\n      0x08fc\n        /* \"./contracts/Main.sol\":804:814  0.01 ether */\n      0x2386f26fc10000\n        /* \"./contracts/Main.sol\":792:801  msg.value */\n      callvalue\n        /* \"./contracts/Main.sol\":792:814  msg.value - 0.01 ether */\n      tag_78\n      swap2\n      swap1\n      tag_79\n      jump\t// in\n    tag_78:\n        /* \"./contracts/Main.sol\":778:815  addr.transfer(msg.value - 0.01 ether) */\n      swap1\n      dup2\n      iszero\n      mul\n      swap1\n      mload(0x40)\n      0x00\n      mload(0x40)\n      dup1\n      dup4\n      sub\n      dup2\n      dup6\n      dup9\n      dup9\n      call\n      swap4\n      pop\n      pop\n      pop\n      pop\n      iszero\n      dup1\n      iszero\n      tag_81\n      jumpi\n      returndatasize\n      0x00\n      dup1\n      returndatacopy\n      revert(0x00, returndatasize)\n    tag_81:\n      pop\n        /* \"./contracts/Main.sol\":680:826  if (msg.value > 0.01 ether) {... */\n      pop\n    tag_77:\n        /* \"./contracts/Main.sol\":835:841  people */\n      0x00\n        /* \"./contracts/Main.sol\":847:860  People(_name) */\n      mload(0x40)\n      dup1\n      0x20\n      add\n      0x40\n      mstore\n      dup1\n        /* \"./contracts/Main.sol\":854:859  _name */\n      dup4\n        /* \"./contracts/Main.sol\":847:860  People(_name) */\n      dup2\n      mstore\n      pop\n        /* \"./contracts/Main.sol\":835:861  people.push(People(_name)) */\n      swap1\n      dup1\n      0x01\n      dup2\n      sload\n      add\n      dup1\n      dup3\n      sstore\n      dup1\n      swap2\n      pop\n      pop\n      0x01\n      swap1\n      sub\n      swap1\n      0x00\n      mstore\n      keccak256(0x00, 0x20)\n      add\n      0x00\n      swap1\n      swap2\n      swap1\n      swap2\n      swap1\n      swap2\n      pop\n      0x00\n      dup3\n      add\n      mload\n      dup2\n      0x00\n      add\n      swap1\n      dup1\n      mload\n      swap1\n      0x20\n      add\n      swap1\n      tag_83\n      swap3\n      swap2\n      swap1\n      tag_84\n      jump\t// in\n    tag_83:\n      pop\n      pop\n      pop\n        /* \"./contracts/Main.sol\":895:896  1 */\n      0x01\n        /* \"./contracts/Main.sol\":879:885  people */\n      0x00\n        /* \"./contracts/Main.sol\":879:892  people.length */\n      dup1\n      sload\n      swap1\n      pop\n        /* \"./contracts/Main.sol\":879:896  people.length - 1 */\n      tag_85\n      swap2\n      swap1\n      tag_79\n      jump\t// in\n    tag_85:\n        /* \"./contracts/Main.sol\":871:876  count */\n      0x08\n        /* \"./contracts/Main.sol\":871:896  count = people.length - 1 */\n      dup2\n      swap1\n      sstore\n      pop\n        /* \"./contracts/Main.sol\":948:954  uint i */\n      0x00\n        /* \"./contracts/Main.sol\":957:958  1 */\n      0x01\n        /* \"./contracts/Main.sol\":948:958  uint i = 1 */\n      swap1\n      pop\n        /* \"./contracts/Main.sol\":944:1027  for(uint i = 1; i < count + 1; i++) {... */\n    tag_86:\n        /* \"./contracts/Main.sol\":972:973  1 */\n      0x01\n        /* \"./contracts/Main.sol\":964:969  count */\n      sload(0x08)\n        /* \"./contracts/Main.sol\":964:973  count + 1 */\n      tag_89\n      swap2\n      swap1\n      tag_90\n      jump\t// in\n    tag_89:\n        /* \"./contracts/Main.sol\":960:961  i */\n      dup2\n        /* \"./contracts/Main.sol\":960:973  i < count + 1 */\n      lt\n        /* \"./contracts/Main.sol\":944:1027  for(uint i = 1; i < count + 1; i++) {... */\n      iszero\n      tag_87\n      jumpi\n        /* \"./contracts/Main.sol\":1011:1016  count */\n      sload(0x08)\n        /* \"./contracts/Main.sol\":994:1005  countString */\n      0x18\n        /* \"./contracts/Main.sol\":1006:1007  i */\n      dup3\n        /* \"./contracts/Main.sol\":994:1008  countString[i] */\n      0x07\n      dup2\n      lt\n      tag_91\n      jumpi\n      mstore(0x00, 0x4e487b7100000000000000000000000000000000000000000000000000000000)\n      mstore(0x04, 0x32)\n      revert(0x00, 0x24)\n    tag_91:\n      add\n        /* \"./contracts/Main.sol\":994:1016  countString[i] = count */\n      dup2\n      swap1\n      sstore\n      pop\n        /* \"./contracts/Main.sol\":975:978  i++ */\n      dup1\n      dup1\n      tag_93\n      swap1\n      tag_94\n      jump\t// in\n    tag_93:\n      swap2\n      pop\n      pop\n        /* \"./contracts/Main.sol\":944:1027  for(uint i = 1; i < count + 1; i++) {... */\n      jump(tag_86)\n    tag_87:\n      pop\n        /* \"./contracts/Main.sol\":1059:1069  msg.sender */\n      caller\n        /* \"./contracts/Main.sol\":1036:1049  countToPeople */\n      0x06\n        /* \"./contracts/Main.sol\":1036:1056  countToPeople[count] */\n      0x00\n        /* \"./contracts/Main.sol\":1050:1055  count */\n      sload(0x08)\n        /* \"./contracts/Main.sol\":1036:1056  countToPeople[count] */\n      dup2\n      mstore\n      0x20\n      add\n      swap1\n      dup2\n      mstore\n      0x20\n      add\n      0x00\n      keccak256\n      0x00\n        /* \"./contracts/Main.sol\":1036:1069  countToPeople[count] = msg.sender */\n      0x0100\n      exp\n      dup2\n      sload\n      dup2\n      0xffffffffffffffffffffffffffffffffffffffff\n      mul\n      not\n      and\n      swap1\n      dup4\n      0xffffffffffffffffffffffffffffffffffffffff\n      and\n      mul\n      or\n      swap1\n      sstore\n      pop\n        /* \"./contracts/Main.sol\":1148:1154  people */\n      0x00\n        /* \"./contracts/Main.sol\":1155:1160  count */\n      sload(0x08)\n        /* \"./contracts/Main.sol\":1148:1161  people[count] */\n      dup2\n      sload\n      dup2\n      lt\n      tag_95\n      jumpi\n      mstore(0x00, 0x4e487b7100000000000000000000000000000000000000000000000000000000)\n      mstore(0x04, 0x32)\n      revert(0x00, 0x24)\n    tag_95:\n      swap1\n      0x00\n      mstore\n      keccak256(0x00, 0x20)\n      add\n        /* \"./contracts/Main.sol\":1148:1166  people[count].name */\n      0x00\n      add\n        /* \"./contracts/Main.sol\":1120:1133  addressToName */\n      0x07\n        /* \"./contracts/Main.sol\":1120:1145  addressToName[msg.sender] */\n      0x00\n        /* \"./contracts/Main.sol\":1134:1144  msg.sender */\n      caller\n        /* \"./contracts/Main.sol\":1120:1145  addressToName[msg.sender] */\n      0xffffffffffffffffffffffffffffffffffffffff\n      and\n      0xffffffffffffffffffffffffffffffffffffffff\n      and\n      dup2\n      mstore\n      0x20\n      add\n      swap1\n      dup2\n      mstore\n      0x20\n      add\n      0x00\n      keccak256\n        /* \"./contracts/Main.sol\":1120:1166  addressToName[msg.sender] = people[count].name */\n      swap1\n      dup1\n      sload\n      tag_97\n      swap1\n      tag_64\n      jump\t// in\n    tag_97:\n      tag_98\n      swap3\n      swap2\n      swap1\n      tag_99\n      jump\t// in\n    tag_98:\n      pop\n        /* \"./contracts/Main.sol\":1176:1181  count */\n      0x08\n      0x00\n        /* \"./contracts/Main.sol\":1176:1183  count++ */\n      dup2\n      sload\n      dup1\n      swap3\n      swap2\n      swap1\n      tag_100\n      swap1\n      tag_94\n      jump\t// in\n    tag_100:\n      swap2\n      swap1\n      pop\n      sstore\n      pop\n        /* \"./contracts/Main.sol\":1212:1225  upload(count) */\n      0x0f7680ac9ccd6aae030a017c63f21c417f13750f6860bae8bb5d00c70817b460\n        /* \"./contracts/Main.sol\":1219:1224  count */\n      sload(0x08)\n        /* \"./contracts/Main.sol\":1212:1225  upload(count) */\n      mload(0x40)\n      tag_101\n      swap2\n      swap1\n      tag_102\n      jump\t// in\n    tag_101:\n      mload(0x40)\n      dup1\n      swap2\n      sub\n      swap1\n      log1\n        /* \"./contracts/Main.sol\":1247:1248  5 */\n      0x05\n        /* \"./contracts/Main.sol\":1239:1244  count */\n      sload(0x08)\n        /* \"./contracts/Main.sol\":1239:1248  count > 5 */\n      gt\n        /* \"./contracts/Main.sol\":1235:1339  if (count > 5) {... */\n      iszero\n      tag_103\n      jumpi\n        /* \"./contracts/Main.sol\":1264:1279  _producePrize() */\n      tag_104\n        /* \"./contracts/Main.sol\":1264:1277  _producePrize */\n      tag_62\n        /* \"./contracts/Main.sol\":1264:1279  _producePrize() */\n      jump\t// in\n    tag_104:\n        /* \"./contracts/Main.sol\":1316:1328  upload(2021) */\n      0x0f7680ac9ccd6aae030a017c63f21c417f13750f6860bae8bb5d00c70817b460\n        /* \"./contracts/Main.sol\":1323:1327  2021 */\n      0x07e5\n        /* \"./contracts/Main.sol\":1316:1328  upload(2021) */\n      mload(0x40)\n      tag_105\n      swap2\n      swap1\n      tag_106\n      jump\t// in\n    tag_105:\n      mload(0x40)\n      dup1\n      swap2\n      sub\n      swap1\n      log1\n        /* \"./contracts/Main.sol\":1235:1339  if (count > 5) {... */\n    tag_103:\n        /* \"./contracts/Main.sol\":616:1345  function rigister(string memory _name) public payable {... */\n      pop\n      jump\t// out\n        /* \"./contracts/Main.sol\":2455:2871  function _produceThirdPrize() public view returns(address, address, address) {//三等奖的人及地址... */\n    tag_31:\n        /* \"./contracts/Main.sol\":2505:2512  address */\n      0x00\n        /* \"./contracts/Main.sol\":2514:2521  address */\n      dup1\n        /* \"./contracts/Main.sol\":2523:2530  address */\n      0x00\n        /* \"./contracts/Main.sol\":2568:2603  address[3] memory thirdPrizeAddress */\n      tag_108\n      tag_109\n      jump\t// in\n    tag_108:\n        /* \"./contracts/Main.sol\":2640:2658  prizeWinnerAddress */\n      0x0a\n        /* \"./contracts/Main.sol\":2659:2660  3 */\n      0x03\n        /* \"./contracts/Main.sol\":2640:2661  prizeWinnerAddress[3] */\n      0x07\n      dup2\n      lt\n      tag_110\n      jumpi\n      mstore(0x00, 0x4e487b7100000000000000000000000000000000000000000000000000000000)\n      mstore(0x04, 0x32)\n      revert(0x00, 0x24)\n    tag_110:\n      add\n      0x00\n      swap1\n      sload\n      swap1\n      0x0100\n      exp\n      swap1\n      div\n      0xffffffffffffffffffffffffffffffffffffffff\n      and\n        /* \"./contracts/Main.sol\":2617:2634  thirdPrizeAddress */\n      dup2\n        /* \"./contracts/Main.sol\":2635:2636  0 */\n      0x00\n        /* \"./contracts/Main.sol\":2617:2637  thirdPrizeAddress[0] */\n      0x03\n      dup2\n      lt\n      tag_112\n      jumpi\n      mstore(0x00, 0x4e487b7100000000000000000000000000000000000000000000000000000000)\n      mstore(0x04, 0x32)\n      revert(0x00, 0x24)\n    tag_112:\n      0x20\n      mul\n      add\n        /* \"./contracts/Main.sol\":2617:2661  thirdPrizeAddress[0] = prizeWinnerAddress[3] */\n      swap1\n      0xffffffffffffffffffffffffffffffffffffffff\n      and\n      swap1\n      dup2\n      0xffffffffffffffffffffffffffffffffffffffff\n      and\n      dup2\n      mstore\n      pop\n      pop\n        /* \"./contracts/Main.sol\":2698:2716  prizeWinnerAddress */\n      0x0a\n        /* \"./contracts/Main.sol\":2717:2718  4 */\n      0x04\n        /* \"./contracts/Main.sol\":2698:2719  prizeWinnerAddress[4] */\n      0x07\n      dup2\n      lt\n      tag_113\n      jumpi\n      mstore(0x00, 0x4e487b7100000000000000000000000000000000000000000000000000000000)\n      mstore(0x04, 0x32)\n      revert(0x00, 0x24)\n    tag_113:\n      add\n      0x00\n      swap1\n      sload\n      swap1\n      0x0100\n      exp\n      swap1\n      div\n      0xffffffffffffffffffffffffffffffffffffffff\n      and\n        /* \"./contracts/Main.sol\":2675:2692  thirdPrizeAddress */\n      dup2\n        /* \"./contracts/Main.sol\":2693:2694  1 */\n      0x01\n        /* \"./contracts/Main.sol\":2675:2695  thirdPrizeAddress[1] */\n      0x03\n      dup2\n      lt\n      tag_115\n      jumpi\n      mstore(0x00, 0x4e487b7100000000000000000000000000000000000000000000000000000000)\n      mstore(0x04, 0x32)\n      revert(0x00, 0x24)\n    tag_115:\n      0x20\n      mul\n      add\n        /* \"./contracts/Main.sol\":2675:2719  thirdPrizeAddress[1] = prizeWinnerAddress[4] */\n      swap1\n      0xffffffffffffffffffffffffffffffffffffffff\n      and\n      swap1\n      dup2\n      0xffffffffffffffffffffffffffffffffffffffff\n      and\n      dup2\n      mstore\n      pop\n      pop\n        /* \"./contracts/Main.sol\":2756:2774  prizeWinnerAddress */\n      0x0a\n        /* \"./contracts/Main.sol\":2775:2776  5 */\n      0x05\n        /* \"./contracts/Main.sol\":2756:2777  prizeWinnerAddress[5] */\n      0x07\n      dup2\n      lt\n      tag_116\n      jumpi\n      mstore(0x00, 0x4e487b7100000000000000000000000000000000000000000000000000000000)\n      mstore(0x04, 0x32)\n      revert(0x00, 0x24)\n    tag_116:\n      add\n      0x00\n      swap1\n      sload\n      swap1\n      0x0100\n      exp\n      swap1\n      div\n      0xffffffffffffffffffffffffffffffffffffffff\n      and\n        /* \"./contracts/Main.sol\":2733:2750  thirdPrizeAddress */\n      dup2\n        /* \"./contracts/Main.sol\":2751:2752  2 */\n      0x02\n        /* \"./contracts/Main.sol\":2733:2753  thirdPrizeAddress[2] */\n      0x03\n      dup2\n      lt\n      tag_118\n      jumpi\n      mstore(0x00, 0x4e487b7100000000000000000000000000000000000000000000000000000000)\n      mstore(0x04, 0x32)\n      revert(0x00, 0x24)\n    tag_118:\n      0x20\n      mul\n      add\n        /* \"./contracts/Main.sol\":2733:2777  thirdPrizeAddress[2] = prizeWinnerAddress[5] */\n      swap1\n      0xffffffffffffffffffffffffffffffffffffffff\n      and\n      swap1\n      dup2\n      0xffffffffffffffffffffffffffffffffffffffff\n      and\n      dup2\n      mstore\n      pop\n      pop\n        /* \"./contracts/Main.sol\":2799:2816  thirdPrizeAddress */\n      dup1\n        /* \"./contracts/Main.sol\":2817:2818  0 */\n      0x00\n        /* \"./contracts/Main.sol\":2799:2819  thirdPrizeAddress[0] */\n      0x03\n      dup2\n      lt\n      tag_119\n      jumpi\n      mstore(0x00, 0x4e487b7100000000000000000000000000000000000000000000000000000000)\n      mstore(0x04, 0x32)\n      revert(0x00, 0x24)\n    tag_119:\n      0x20\n      mul\n      add\n      mload\n        /* \"./contracts/Main.sol\":2821:2838  thirdPrizeAddress */\n      dup2\n        /* \"./contracts/Main.sol\":2839:2840  1 */\n      0x01\n        /* \"./contracts/Main.sol\":2821:2841  thirdPrizeAddress[1] */\n      0x03\n      dup2\n      lt\n      tag_120\n      jumpi\n      mstore(0x00, 0x4e487b7100000000000000000000000000000000000000000000000000000000)\n      mstore(0x04, 0x32)\n      revert(0x00, 0x24)\n    tag_120:\n      0x20\n      mul\n      add\n      mload\n        /* \"./contracts/Main.sol\":2843:2860  thirdPrizeAddress */\n      dup3\n        /* \"./contracts/Main.sol\":2861:2862  2 */\n      0x02\n        /* \"./contracts/Main.sol\":2843:2863  thirdPrizeAddress[2] */\n      0x03\n      dup2\n      lt\n      tag_121\n      jumpi\n      mstore(0x00, 0x4e487b7100000000000000000000000000000000000000000000000000000000)\n      mstore(0x04, 0x32)\n      revert(0x00, 0x24)\n    tag_121:\n      0x20\n      mul\n      add\n      mload\n        /* \"./contracts/Main.sol\":2791:2864  return (thirdPrizeAddress[0], thirdPrizeAddress[1], thirdPrizeAddress[2]) */\n      swap4\n      pop\n      swap4\n      pop\n      swap4\n      pop\n      pop\n        /* \"./contracts/Main.sol\":2455:2871  function _produceThirdPrize() public view returns(address, address, address) {//三等奖的人及地址... */\n      swap1\n      swap2\n      swap3\n      jump\t// out\n        /* \"./contracts/Main.sol\":1812:2122  function _winnerNumber() public returns (uint[7] memory){//生成1000人里面获奖数字... */\n    tag_36:\n        /* \"./contracts/Main.sol\":1853:1867  uint[7] memory */\n      tag_122\n      tag_123\n      jump\t// in\n    tag_122:\n        /* \"./contracts/Main.sol\":1916:1922  uint i */\n      0x00\n        /* \"./contracts/Main.sol\":1911:2087  for (uint i = 0; i < 6; i++) {... */\n    tag_125:\n        /* \"./contracts/Main.sol\":1932:1933  6 */\n      0x06\n        /* \"./contracts/Main.sol\":1928:1929  i */\n      dup2\n        /* \"./contracts/Main.sol\":1928:1933  i < 6 */\n      lt\n        /* \"./contracts/Main.sol\":1911:2087  for (uint i = 0; i < 6; i++) {... */\n      iszero\n      tag_126\n      jumpi\n        /* \"./contracts/Main.sol\":2048:2055  modulus */\n      sload(0x01)\n        /* \"./contracts/Main.sol\":2022:2023  i */\n      dup2\n        /* \"./contracts/Main.sol\":2020:2021  3 */\n      0x03\n        /* \"./contracts/Main.sol\":2020:2023  3*i */\n      tag_128\n      swap2\n      swap1\n      tag_129\n      jump\t// in\n    tag_128:\n        /* \"./contracts/Main.sol\":2004:2019  block.timestamp */\n      timestamp\n        /* \"./contracts/Main.sol\":2004:2023  block.timestamp+3*i */\n      tag_130\n      swap2\n      swap1\n      tag_90\n      jump\t// in\n    tag_130:\n        /* \"./contracts/Main.sol\":2025:2035  msg.sender */\n      caller\n        /* \"./contracts/Main.sol\":2037:2042  nonce */\n      sload(0x09)\n        /* \"./contracts/Main.sol\":1987:2043  abi.encodePacked(block.timestamp+3*i, msg.sender, nonce) */\n      add(0x20, mload(0x40))\n      tag_131\n      swap4\n      swap3\n      swap2\n      swap1\n      tag_132\n      jump\t// in\n    tag_131:\n      mload(0x40)\n      0x20\n      dup2\n      dup4\n      sub\n      sub\n      dup2\n      mstore\n      swap1\n      0x40\n      mstore\n        /* \"./contracts/Main.sol\":1977:2044  keccak256(abi.encodePacked(block.timestamp+3*i, msg.sender, nonce)) */\n      dup1\n      mload\n      swap1\n      0x20\n      add\n      keccak256\n        /* \"./contracts/Main.sol\":1972:2045  uint(keccak256(abi.encodePacked(block.timestamp+3*i, msg.sender, nonce))) */\n      0x00\n      shr\n        /* \"./contracts/Main.sol\":1972:2055  uint(keccak256(abi.encodePacked(block.timestamp+3*i, msg.sender, nonce))) % modulus */\n      tag_133\n      swap2\n      swap1\n      tag_134\n      jump\t// in\n    tag_133:\n        /* \"./contracts/Main.sol\":1954:1966  winnerNumber */\n      0x11\n        /* \"./contracts/Main.sol\":1967:1968  i */\n      dup3\n        /* \"./contracts/Main.sol\":1954:1969  winnerNumber[i] */\n      0x07\n      dup2\n      lt\n      tag_135\n      jumpi\n      mstore(0x00, 0x4e487b7100000000000000000000000000000000000000000000000000000000)\n      mstore(0x04, 0x32)\n      revert(0x00, 0x24)\n    tag_135:\n      add\n        /* \"./contracts/Main.sol\":1954:2055  winnerNumber[i] = uint(keccak256(abi.encodePacked(block.timestamp+3*i, msg.sender, nonce))) % modulus */\n      dup2\n      swap1\n      sstore\n      pop\n        /* \"./contracts/Main.sol\":2069:2074  nonce */\n      0x09\n      0x00\n        /* \"./contracts/Main.sol\":2069:2076  nonce++ */\n      dup2\n      sload\n      dup1\n      swap3\n      swap2\n      swap1\n      tag_137\n      swap1\n      tag_94\n      jump\t// in\n    tag_137:\n      swap2\n      swap1\n      pop\n      sstore\n      pop\n        /* \"./contracts/Main.sol\":1935:1938  i++ */\n      dup1\n      dup1\n      tag_138\n      swap1\n      tag_94\n      jump\t// in\n    tag_138:\n      swap2\n      pop\n      pop\n        /* \"./contracts/Main.sol\":1911:2087  for (uint i = 0; i < 6; i++) {... */\n      jump(tag_125)\n    tag_126:\n      pop\n        /* \"./contracts/Main.sol\":2103:2115  winnerNumber */\n      0x11\n        /* \"./contracts/Main.sol\":2096:2115  return winnerNumber */\n      0x07\n      dup1\n      0x20\n      mul\n      mload(0x40)\n      swap1\n      dup2\n      add\n      0x40\n      mstore\n      dup1\n      swap3\n      swap2\n      swap1\n      dup3\n      0x07\n      dup1\n      iszero\n      tag_139\n      jumpi\n      0x20\n      mul\n      dup3\n      add\n      swap2\n    tag_140:\n      dup2\n      sload\n      dup2\n      mstore\n      0x20\n      add\n      swap1\n      0x01\n      add\n      swap1\n      dup1\n      dup4\n      gt\n      tag_140\n      jumpi\n    tag_139:\n      pop\n      pop\n      pop\n      pop\n      pop\n      swap1\n      pop\n        /* \"./contracts/Main.sol\":1812:2122  function _winnerNumber() public returns (uint[7] memory){//生成1000人里面获奖数字... */\n      swap1\n      jump\t// out\n        /* \"./contracts/Main.sol\":272:318  mapping (uint => address) public countToPeople */\n    tag_42:\n      mstore(0x20, 0x06)\n      dup1\n      0x00\n      mstore\n      keccak256(0x00, 0x40)\n      0x00\n      swap2\n      pop\n      sload\n      swap1\n      0x0100\n      exp\n      swap1\n      div\n      0xffffffffffffffffffffffffffffffffffffffff\n      and\n      dup2\n      jump\t// out\n        /* \"./contracts/Main.sol\":134:156  People[] public people */\n    tag_47:\n      0x00\n      dup2\n      dup2\n      sload\n      dup2\n      lt\n      tag_141\n      jumpi\n      0x00\n      dup1\n      revert\n    tag_141:\n      swap1\n      0x00\n      mstore\n      keccak256(0x00, 0x20)\n      add\n      0x00\n      swap2\n      pop\n      swap1\n      pop\n      dup1\n      0x00\n      add\n      dup1\n      sload\n      tag_143\n      swap1\n      tag_64\n      jump\t// in\n    tag_143:\n      dup1\n      0x1f\n      add\n      0x20\n      dup1\n      swap2\n      div\n      mul\n      0x20\n      add\n      mload(0x40)\n      swap1\n      dup2\n      add\n      0x40\n      mstore\n      dup1\n      swap3\n      swap2\n      swap1\n      dup2\n      dup2\n      mstore\n      0x20\n      add\n      dup3\n      dup1\n      sload\n      tag_144\n      swap1\n      tag_64\n      jump\t// in\n    tag_144:\n      dup1\n      iszero\n      tag_145\n      jumpi\n      dup1\n      0x1f\n      lt\n      tag_146\n      jumpi\n      0x0100\n      dup1\n      dup4\n      sload\n      div\n      mul\n      dup4\n      mstore\n      swap2\n      0x20\n      add\n      swap2\n      jump(tag_145)\n    tag_146:\n      dup3\n      add\n      swap2\n      swap1\n      0x00\n      mstore\n      keccak256(0x00, 0x20)\n      swap1\n    tag_147:\n      dup2\n      sload\n      dup2\n      mstore\n      swap1\n      0x01\n      add\n      swap1\n      0x20\n      add\n      dup1\n      dup4\n      gt\n      tag_147\n      jumpi\n      dup3\n      swap1\n      sub\n      0x1f\n      and\n      dup3\n      add\n      swap2\n    tag_145:\n      pop\n      pop\n      pop\n      pop\n      pop\n      swap1\n      pop\n      dup2\n      jump\t// out\n        /* \"./contracts/Main.sol\":362:410  mapping (address => string) public addressToName */\n    tag_53:\n      mstore(0x20, 0x07)\n      dup1\n      0x00\n      mstore\n      keccak256(0x00, 0x40)\n      0x00\n      swap2\n      pop\n      swap1\n      pop\n      dup1\n      sload\n      tag_148\n      swap1\n      tag_64\n      jump\t// in\n    tag_148:\n      dup1\n      0x1f\n      add\n      0x20\n      dup1\n      swap2\n      div\n      mul\n      0x20\n      add\n      mload(0x40)\n      swap1\n      dup2\n      add\n      0x40\n      mstore\n      dup1\n      swap3\n      swap2\n      swap1\n      dup2\n      dup2\n      mstore\n      0x20\n      add\n      dup3\n      dup1\n      sload\n      tag_149\n      swap1\n      tag_64\n      jump\t// in\n    tag_149:\n      dup1\n      iszero\n      tag_150\n      jumpi\n      dup1\n      0x1f\n      lt\n      tag_151\n      jumpi\n      0x0100\n      dup1\n      dup4\n      sload\n      div\n      mul\n      dup4\n      mstore\n      swap2\n      0x20\n      add\n      swap2\n      jump(tag_150)\n    tag_151:\n      dup3\n      add\n      swap2\n      swap1\n      0x00\n      mstore\n      keccak256(0x00, 0x20)\n      swap1\n    tag_152:\n      dup2\n      sload\n      dup2\n      mstore\n      swap1\n      0x01\n      add\n      swap1\n      0x20\n      add\n      dup1\n      dup4\n      gt\n      tag_152\n      jumpi\n      dup3\n      swap1\n      sub\n      0x1f\n      and\n      dup3\n      add\n      swap2\n    tag_150:\n      pop\n      pop\n      pop\n      pop\n      pop\n      dup2\n      jump\t// out\n        /* \"./contracts/Main.sol\":2128:2449  function _produceSecondPrize() public view returns(address, address) {//二等奖的人及地址... */\n    tag_57:\n        /* \"./contracts/Main.sol\":2179:2186  address */\n      0x00\n        /* \"./contracts/Main.sol\":2188:2195  address */\n      dup1\n        /* \"./contracts/Main.sol\":2233:2269  address[2] memory secondPrizeAddress */\n      tag_154\n      tag_155\n      jump\t// in\n    tag_154:\n        /* \"./contracts/Main.sol\":2303:2321  prizeWinnerAddress */\n      0x0a\n        /* \"./contracts/Main.sol\":2322:2323  1 */\n      0x01\n        /* \"./contracts/Main.sol\":2303:2324  prizeWinnerAddress[1] */\n      0x07\n      dup2\n      lt\n      tag_156\n      jumpi\n      mstore(0x00, 0x4e487b7100000000000000000000000000000000000000000000000000000000)\n      mstore(0x04, 0x32)\n      revert(0x00, 0x24)\n    tag_156:\n      add\n      0x00\n      swap1\n      sload\n      swap1\n      0x0100\n      exp\n      swap1\n      div\n      0xffffffffffffffffffffffffffffffffffffffff\n      and\n        /* \"./contracts/Main.sol\":2279:2297  secondPrizeAddress */\n      dup2\n        /* \"./contracts/Main.sol\":2298:2299  0 */\n      0x00\n        /* \"./contracts/Main.sol\":2279:2300  secondPrizeAddress[0] */\n      0x02\n      dup2\n      lt\n      tag_158\n      jumpi\n      mstore(0x00, 0x4e487b7100000000000000000000000000000000000000000000000000000000)\n      mstore(0x04, 0x32)\n      revert(0x00, 0x24)\n    tag_158:\n      0x20\n      mul\n      add\n        /* \"./contracts/Main.sol\":2279:2324  secondPrizeAddress[0] = prizeWinnerAddress[1] */\n      swap1\n      0xffffffffffffffffffffffffffffffffffffffff\n      and\n      swap1\n      dup2\n      0xffffffffffffffffffffffffffffffffffffffff\n      and\n      dup2\n      mstore\n      pop\n      pop\n        /* \"./contracts/Main.sol\":2358:2376  prizeWinnerAddress */\n      0x0a\n        /* \"./contracts/Main.sol\":2377:2378  2 */\n      0x02\n        /* \"./contracts/Main.sol\":2358:2379  prizeWinnerAddress[2] */\n      0x07\n      dup2\n      lt\n      tag_159\n      jumpi\n      mstore(0x00, 0x4e487b7100000000000000000000000000000000000000000000000000000000)\n      mstore(0x04, 0x32)\n      revert(0x00, 0x24)\n    tag_159:\n      add\n      0x00\n      swap1\n      sload\n      swap1\n      0x0100\n      exp\n      swap1\n      div\n      0xffffffffffffffffffffffffffffffffffffffff\n      and\n        /* \"./contracts/Main.sol\":2334:2352  secondPrizeAddress */\n      dup2\n        /* \"./contracts/Main.sol\":2353:2354  1 */\n      0x01\n        /* \"./contracts/Main.sol\":2334:2355  secondPrizeAddress[1] */\n      0x02\n      dup2\n      lt\n      tag_161\n      jumpi\n      mstore(0x00, 0x4e487b7100000000000000000000000000000000000000000000000000000000)\n      mstore(0x04, 0x32)\n      revert(0x00, 0x24)\n    tag_161:\n      0x20\n      mul\n      add\n        /* \"./contracts/Main.sol\":2334:2379  secondPrizeAddress[1] = prizeWinnerAddress[2] */\n      swap1\n      0xffffffffffffffffffffffffffffffffffffffff\n      and\n      swap1\n      dup2\n      0xffffffffffffffffffffffffffffffffffffffff\n      and\n      dup2\n      mstore\n      pop\n      pop\n        /* \"./contracts/Main.sol\":2397:2415  secondPrizeAddress */\n      dup1\n        /* \"./contracts/Main.sol\":2416:2417  0 */\n      0x00\n        /* \"./contracts/Main.sol\":2397:2418  secondPrizeAddress[0] */\n      0x02\n      dup2\n      lt\n      tag_162\n      jumpi\n      mstore(0x00, 0x4e487b7100000000000000000000000000000000000000000000000000000000)\n      mstore(0x04, 0x32)\n      revert(0x00, 0x24)\n    tag_162:\n      0x20\n      mul\n      add\n      mload\n        /* \"./contracts/Main.sol\":2420:2438  secondPrizeAddress */\n      dup2\n        /* \"./contracts/Main.sol\":2439:2440  1 */\n      0x01\n        /* \"./contracts/Main.sol\":2420:2441  secondPrizeAddress[1] */\n      0x02\n      dup2\n      lt\n      tag_163\n      jumpi\n      mstore(0x00, 0x4e487b7100000000000000000000000000000000000000000000000000000000)\n      mstore(0x04, 0x32)\n      revert(0x00, 0x24)\n    tag_163:\n      0x20\n      mul\n      add\n      mload\n        /* \"./contracts/Main.sol\":2389:2442  return (secondPrizeAddress[0], secondPrizeAddress[1]) */\n      swap3\n      pop\n      swap3\n      pop\n      pop\n        /* \"./contracts/Main.sol\":2128:2449  function _produceSecondPrize() public view returns(address, address) {//二等奖的人及地址... */\n      swap1\n      swap2\n      jump\t// out\n        /* \"./contracts/Main.sol\":1369:1806  function _producePrize() public {... */\n    tag_62:\n        /* \"./contracts/Main.sol\":1411:1426  _winnerNumber() */\n      tag_165\n        /* \"./contracts/Main.sol\":1411:1424  _winnerNumber */\n      tag_36\n        /* \"./contracts/Main.sol\":1411:1426  _winnerNumber() */\n      jump\t// in\n    tag_165:\n      pop\n        /* \"./contracts/Main.sol\":1476:1482  uint i */\n      0x00\n        /* \"./contracts/Main.sol\":1471:1579  for (uint i = 0; i < 6; i++) {... */\n    tag_166:\n        /* \"./contracts/Main.sol\":1492:1493  6 */\n      0x06\n        /* \"./contracts/Main.sol\":1488:1489  i */\n      dup2\n        /* \"./contracts/Main.sol\":1488:1493  i < 6 */\n      lt\n        /* \"./contracts/Main.sol\":1471:1579  for (uint i = 0; i < 6; i++) {... */\n      iszero\n      tag_167\n      jumpi\n        /* \"./contracts/Main.sol\":1538:1551  countToPeople */\n      0x06\n        /* \"./contracts/Main.sol\":1538:1568  countToPeople[winnerNumber[i]] */\n      0x00\n        /* \"./contracts/Main.sol\":1552:1564  winnerNumber */\n      0x11\n        /* \"./contracts/Main.sol\":1565:1566  i */\n      dup4\n        /* \"./contracts/Main.sol\":1552:1567  winnerNumber[i] */\n      0x07\n      dup2\n      lt\n      tag_169\n      jumpi\n      mstore(0x00, 0x4e487b7100000000000000000000000000000000000000000000000000000000)\n      mstore(0x04, 0x32)\n      revert(0x00, 0x24)\n    tag_169:\n      add\n      sload\n        /* \"./contracts/Main.sol\":1538:1568  countToPeople[winnerNumber[i]] */\n      dup2\n      mstore\n      0x20\n      add\n      swap1\n      dup2\n      mstore\n      0x20\n      add\n      0x00\n      keccak256\n      0x00\n      swap1\n      sload\n      swap1\n      0x0100\n      exp\n      swap1\n      div\n      0xffffffffffffffffffffffffffffffffffffffff\n      and\n        /* \"./contracts/Main.sol\":1514:1532  prizeWinnerAddress */\n      0x0a\n        /* \"./contracts/Main.sol\":1533:1534  i */\n      dup3\n        /* \"./contracts/Main.sol\":1514:1535  prizeWinnerAddress[i] */\n      0x07\n      dup2\n      lt\n      tag_171\n      jumpi\n      mstore(0x00, 0x4e487b7100000000000000000000000000000000000000000000000000000000)\n      mstore(0x04, 0x32)\n      revert(0x00, 0x24)\n    tag_171:\n      add\n      0x00\n        /* \"./contracts/Main.sol\":1514:1568  prizeWinnerAddress[i] = countToPeople[winnerNumber[i]] */\n      0x0100\n      exp\n      dup2\n      sload\n      dup2\n      0xffffffffffffffffffffffffffffffffffffffff\n      mul\n      not\n      and\n      swap1\n      dup4\n      0xffffffffffffffffffffffffffffffffffffffff\n      and\n      mul\n      or\n      swap1\n      sstore\n      pop\n        /* \"./contracts/Main.sol\":1495:1498  i++ */\n      dup1\n      dup1\n      tag_173\n      swap1\n      tag_94\n      jump\t// in\n    tag_173:\n      swap2\n      pop\n      pop\n        /* \"./contracts/Main.sol\":1471:1579  for (uint i = 0; i < 6; i++) {... */\n      jump(tag_166)\n    tag_167:\n      pop\n        /* \"./contracts/Main.sol\":1611:1631  _produceFirstPrize() */\n      tag_174\n        /* \"./contracts/Main.sol\":1611:1629  _produceFirstPrize */\n      tag_22\n        /* \"./contracts/Main.sol\":1611:1631  _produceFirstPrize() */\n      jump\t// in\n    tag_174:\n      pop\n        /* \"./contracts/Main.sol\":1673:1694  _produceSecondPrize() */\n      tag_175\n        /* \"./contracts/Main.sol\":1673:1692  _produceSecondPrize */\n      tag_57\n        /* \"./contracts/Main.sol\":1673:1694  _produceSecondPrize() */\n      jump\t// in\n    tag_175:\n      pop\n      pop\n        /* \"./contracts/Main.sol\":1730:1750  _produceThirdPrize() */\n      tag_176\n        /* \"./contracts/Main.sol\":1730:1748  _produceThirdPrize */\n      tag_31\n        /* \"./contracts/Main.sol\":1730:1750  _produceThirdPrize() */\n      jump\t// in\n    tag_176:\n      pop\n      pop\n      pop\n        /* \"./contracts/Main.sol\":1369:1806  function _producePrize() public {... */\n      jump\t// out\n    tag_71:\n      mload(0x40)\n      dup1\n      0x20\n      add\n      0x40\n      mstore\n      dup1\n      0x01\n      swap1\n      0x20\n      dup3\n      mul\n      dup1\n      calldatasize\n      dup4\n      calldatacopy\n      dup1\n      dup3\n      add\n      swap2\n      pop\n      pop\n      swap1\n      pop\n      pop\n      swap1\n      jump\t// out\n    tag_84:\n      dup3\n      dup1\n      sload\n      tag_177\n      swap1\n      tag_64\n      jump\t// in\n    tag_177:\n      swap1\n      0x00\n      mstore\n      keccak256(0x00, 0x20)\n      swap1\n      0x1f\n      add\n      0x20\n      swap1\n      div\n      dup2\n      add\n      swap3\n      dup3\n      tag_179\n      jumpi\n      0x00\n      dup6\n      sstore\n      jump(tag_178)\n    tag_179:\n      dup3\n      0x1f\n      lt\n      tag_180\n      jumpi\n      dup1\n      mload\n      not(0xff)\n      and\n      dup4\n      dup1\n      add\n      or\n      dup6\n      sstore\n      jump(tag_178)\n    tag_180:\n      dup3\n      dup1\n      add\n      0x01\n      add\n      dup6\n      sstore\n      dup3\n      iszero\n      tag_178\n      jumpi\n      swap2\n      dup3\n      add\n    tag_181:\n      dup3\n      dup2\n      gt\n      iszero\n      tag_182\n      jumpi\n      dup3\n      mload\n      dup3\n      sstore\n      swap2\n      0x20\n      add\n      swap2\n      swap1\n      0x01\n      add\n      swap1\n      jump(tag_181)\n    tag_182:\n    tag_178:\n      pop\n      swap1\n      pop\n      tag_183\n      swap2\n      swap1\n      tag_184\n      jump\t// in\n    tag_183:\n      pop\n      swap1\n      jump\t// out\n    tag_99:\n      dup3\n      dup1\n      sload\n      tag_185\n      swap1\n      tag_64\n      jump\t// in\n    tag_185:\n      swap1\n      0x00\n      mstore\n      keccak256(0x00, 0x20)\n      swap1\n      0x1f\n      add\n      0x20\n      swap1\n      div\n      dup2\n      add\n      swap3\n      dup3\n      tag_187\n      jumpi\n      0x00\n      dup6\n      sstore\n      jump(tag_186)\n    tag_187:\n      dup3\n      0x1f\n      lt\n      tag_188\n      jumpi\n      dup1\n      sload\n      dup6\n      sstore\n      jump(tag_186)\n    tag_188:\n      dup3\n      dup1\n      add\n      0x01\n      add\n      dup6\n      sstore\n      dup3\n      iszero\n      tag_186\n      jumpi\n      0x00\n      mstore\n      keccak256(0x00, 0x20)\n      swap2\n      0x1f\n      add\n      0x20\n      swap1\n      div\n      dup3\n      add\n    tag_189:\n      dup3\n      dup2\n      gt\n      iszero\n      tag_190\n      jumpi\n      dup3\n      sload\n      dup3\n      sstore\n      swap2\n      0x01\n      add\n      swap2\n      swap1\n      0x01\n      add\n      swap1\n      jump(tag_189)\n    tag_190:\n    tag_186:\n      pop\n      swap1\n      pop\n      tag_191\n      swap2\n      swap1\n      tag_184\n      jump\t// in\n    tag_191:\n      pop\n      swap1\n      jump\t// out\n    tag_109:\n      mload(0x40)\n      dup1\n      0x60\n      add\n      0x40\n      mstore\n      dup1\n      0x03\n      swap1\n      0x20\n      dup3\n      mul\n      dup1\n      calldatasize\n      dup4\n      calldatacopy\n      dup1\n      dup3\n      add\n      swap2\n      pop\n      pop\n      swap1\n      pop\n      pop\n      swap1\n      jump\t// out\n    tag_123:\n      mload(0x40)\n      dup1\n      0xe0\n      add\n      0x40\n      mstore\n      dup1\n      0x07\n      swap1\n      0x20\n      dup3\n      mul\n      dup1\n      calldatasize\n      dup4\n      calldatacopy\n      dup1\n      dup3\n      add\n      swap2\n      pop\n      pop\n      swap1\n      pop\n      pop\n      swap1\n      jump\t// out\n    tag_155:\n      mload(0x40)\n      dup1\n      0x40\n      add\n      0x40\n      mstore\n      dup1\n      0x02\n      swap1\n      0x20\n      dup3\n      mul\n      dup1\n      calldatasize\n      dup4\n      calldatacopy\n      dup1\n      dup3\n      add\n      swap2\n      pop\n      pop\n      swap1\n      pop\n      pop\n      swap1\n      jump\t// out\n    tag_184:\n    tag_192:\n      dup1\n      dup3\n      gt\n      iszero\n      tag_193\n      jumpi\n      0x00\n      dup2\n      0x00\n      swap1\n      sstore\n      pop\n      0x01\n      add\n      jump(tag_192)\n    tag_193:\n      pop\n      swap1\n      jump\t// out\n        /* \"#utility.yul\":7:351   */\n    tag_195:\n      0x00\n        /* \"#utility.yul\":110:175   */\n      tag_197\n        /* \"#utility.yul\":125:174   */\n      tag_198\n        /* \"#utility.yul\":167:173   */\n      dup5\n        /* \"#utility.yul\":125:174   */\n      tag_199\n      jump\t// in\n    tag_198:\n        /* \"#utility.yul\":110:175   */\n      tag_200\n      jump\t// in\n    tag_197:\n        /* \"#utility.yul\":101:175   */\n      swap1\n      pop\n        /* \"#utility.yul\":198:204   */\n      dup3\n        /* \"#utility.yul\":191:196   */\n      dup2\n        /* \"#utility.yul\":184:205   */\n      mstore\n        /* \"#utility.yul\":236:240   */\n      0x20\n        /* \"#utility.yul\":229:234   */\n      dup2\n        /* \"#utility.yul\":225:241   */\n      add\n        /* \"#utility.yul\":274:277   */\n      dup5\n        /* \"#utility.yul\":265:271   */\n      dup5\n        /* \"#utility.yul\":260:263   */\n      dup5\n        /* \"#utility.yul\":256:272   */\n      add\n        /* \"#utility.yul\":253:278   */\n      gt\n        /* \"#utility.yul\":250:252   */\n      iszero\n      tag_201\n      jumpi\n        /* \"#utility.yul\":291:292   */\n      0x00\n        /* \"#utility.yul\":288:289   */\n      dup1\n        /* \"#utility.yul\":281:293   */\n      revert\n        /* \"#utility.yul\":250:252   */\n    tag_201:\n        /* \"#utility.yul\":304:345   */\n      tag_202\n        /* \"#utility.yul\":338:344   */\n      dup5\n        /* \"#utility.yul\":333:336   */\n      dup3\n        /* \"#utility.yul\":328:331   */\n      dup6\n        /* \"#utility.yul\":304:345   */\n      tag_203\n      jump\t// in\n    tag_202:\n        /* \"#utility.yul\":91:351   */\n      pop\n      swap4\n      swap3\n      pop\n      pop\n      pop\n      jump\t// out\n        /* \"#utility.yul\":357:496   */\n    tag_204:\n      0x00\n        /* \"#utility.yul\":441:447   */\n      dup2\n        /* \"#utility.yul\":428:448   */\n      calldataload\n        /* \"#utility.yul\":419:448   */\n      swap1\n      pop\n        /* \"#utility.yul\":457:490   */\n      tag_206\n        /* \"#utility.yul\":484:489   */\n      dup2\n        /* \"#utility.yul\":457:490   */\n      tag_207\n      jump\t// in\n    tag_206:\n        /* \"#utility.yul\":409:496   */\n      swap3\n      swap2\n      pop\n      pop\n      jump\t// out\n        /* \"#utility.yul\":516:789   */\n    tag_208:\n      0x00\n        /* \"#utility.yul\":621:624   */\n      dup3\n        /* \"#utility.yul\":614:618   */\n      0x1f\n        /* \"#utility.yul\":606:612   */\n      dup4\n        /* \"#utility.yul\":602:619   */\n      add\n        /* \"#utility.yul\":598:625   */\n      slt\n        /* \"#utility.yul\":588:590   */\n      tag_210\n      jumpi\n        /* \"#utility.yul\":639:640   */\n      0x00\n        /* \"#utility.yul\":636:637   */\n      dup1\n        /* \"#utility.yul\":629:641   */\n      revert\n        /* \"#utility.yul\":588:590   */\n    tag_210:\n        /* \"#utility.yul\":679:685   */\n      dup2\n        /* \"#utility.yul\":666:686   */\n      calldataload\n        /* \"#utility.yul\":704:783   */\n      tag_211\n        /* \"#utility.yul\":779:782   */\n      dup5\n        /* \"#utility.yul\":771:777   */\n      dup3\n        /* \"#utility.yul\":764:768   */\n      0x20\n        /* \"#utility.yul\":756:762   */\n      dup7\n        /* \"#utility.yul\":752:769   */\n      add\n        /* \"#utility.yul\":704:783   */\n      tag_195\n      jump\t// in\n    tag_211:\n        /* \"#utility.yul\":695:783   */\n      swap2\n      pop\n        /* \"#utility.yul\":578:789   */\n      pop\n      swap3\n      swap2\n      pop\n      pop\n      jump\t// out\n        /* \"#utility.yul\":795:934   */\n    tag_212:\n      0x00\n        /* \"#utility.yul\":879:885   */\n      dup2\n        /* \"#utility.yul\":866:886   */\n      calldataload\n        /* \"#utility.yul\":857:886   */\n      swap1\n      pop\n        /* \"#utility.yul\":895:928   */\n      tag_214\n        /* \"#utility.yul\":922:927   */\n      dup2\n        /* \"#utility.yul\":895:928   */\n      tag_215\n      jump\t// in\n    tag_214:\n        /* \"#utility.yul\":847:934   */\n      swap3\n      swap2\n      pop\n      pop\n      jump\t// out\n        /* \"#utility.yul\":940:1202   */\n    tag_52:\n      0x00\n        /* \"#utility.yul\":1048:1050   */\n      0x20\n        /* \"#utility.yul\":1036:1045   */\n      dup3\n        /* \"#utility.yul\":1027:1034   */\n      dup5\n        /* \"#utility.yul\":1023:1046   */\n      sub\n        /* \"#utility.yul\":1019:1051   */\n      slt\n        /* \"#utility.yul\":1016:1018   */\n      iszero\n      tag_217\n      jumpi\n        /* \"#utility.yul\":1064:1065   */\n      0x00\n        /* \"#utility.yul\":1061:1062   */\n      dup1\n        /* \"#utility.yul\":1054:1066   */\n      revert\n        /* \"#utility.yul\":1016:1018   */\n    tag_217:\n        /* \"#utility.yul\":1107:1108   */\n      0x00\n        /* \"#utility.yul\":1132:1185   */\n      tag_218\n        /* \"#utility.yul\":1177:1184   */\n      dup5\n        /* \"#utility.yul\":1168:1174   */\n      dup3\n        /* \"#utility.yul\":1157:1166   */\n      dup6\n        /* \"#utility.yul\":1153:1175   */\n      add\n        /* \"#utility.yul\":1132:1185   */\n      tag_204\n      jump\t// in\n    tag_218:\n        /* \"#utility.yul\":1122:1185   */\n      swap2\n      pop\n        /* \"#utility.yul\":1078:1195   */\n      pop\n        /* \"#utility.yul\":1006:1202   */\n      swap3\n      swap2\n      pop\n      pop\n      jump\t// out\n        /* \"#utility.yul\":1208:1583   */\n    tag_27:\n      0x00\n        /* \"#utility.yul\":1326:1328   */\n      0x20\n        /* \"#utility.yul\":1314:1323   */\n      dup3\n        /* \"#utility.yul\":1305:1312   */\n      dup5\n        /* \"#utility.yul\":1301:1324   */\n      sub\n        /* \"#utility.yul\":1297:1329   */\n      slt\n        /* \"#utility.yul\":1294:1296   */\n      iszero\n      tag_220\n      jumpi\n        /* \"#utility.yul\":1342:1343   */\n      0x00\n        /* \"#utility.yul\":1339:1340   */\n      dup1\n        /* \"#utility.yul\":1332:1344   */\n      revert\n        /* \"#utility.yul\":1294:1296   */\n    tag_220:\n        /* \"#utility.yul\":1413:1414   */\n      0x00\n        /* \"#utility.yul\":1402:1411   */\n      dup3\n        /* \"#utility.yul\":1398:1415   */\n      add\n        /* \"#utility.yul\":1385:1416   */\n      calldataload\n        /* \"#utility.yul\":1443:1461   */\n      0xffffffffffffffff\n        /* \"#utility.yul\":1435:1441   */\n      dup2\n        /* \"#utility.yul\":1432:1462   */\n      gt\n        /* \"#utility.yul\":1429:1431   */\n      iszero\n      tag_221\n      jumpi\n        /* \"#utility.yul\":1475:1476   */\n      0x00\n        /* \"#utility.yul\":1472:1473   */\n      dup1\n        /* \"#utility.yul\":1465:1477   */\n      revert\n        /* \"#utility.yul\":1429:1431   */\n    tag_221:\n        /* \"#utility.yul\":1503:1566   */\n      tag_222\n        /* \"#utility.yul\":1558:1565   */\n      dup5\n        /* \"#utility.yul\":1549:1555   */\n      dup3\n        /* \"#utility.yul\":1538:1547   */\n      dup6\n        /* \"#utility.yul\":1534:1556   */\n      add\n        /* \"#utility.yul\":1503:1566   */\n      tag_208\n      jump\t// in\n    tag_222:\n        /* \"#utility.yul\":1493:1566   */\n      swap2\n      pop\n        /* \"#utility.yul\":1356:1576   */\n      pop\n        /* \"#utility.yul\":1284:1583   */\n      swap3\n      swap2\n      pop\n      pop\n      jump\t// out\n        /* \"#utility.yul\":1589:1851   */\n    tag_16:\n      0x00\n        /* \"#utility.yul\":1697:1699   */\n      0x20\n        /* \"#utility.yul\":1685:1694   */\n      dup3\n        /* \"#utility.yul\":1676:1683   */\n      dup5\n        /* \"#utility.yul\":1672:1695   */\n      sub\n        /* \"#utility.yul\":1668:1700   */\n      slt\n        /* \"#utility.yul\":1665:1667   */\n      iszero\n      tag_224\n      jumpi\n        /* \"#utility.yul\":1713:1714   */\n      0x00\n        /* \"#utility.yul\":1710:1711   */\n      dup1\n        /* \"#utility.yul\":1703:1715   */\n      revert\n        /* \"#utility.yul\":1665:1667   */\n    tag_224:\n        /* \"#utility.yul\":1756:1757   */\n      0x00\n        /* \"#utility.yul\":1781:1834   */\n      tag_225\n        /* \"#utility.yul\":1826:1833   */\n      dup5\n        /* \"#utility.yul\":1817:1823   */\n      dup3\n        /* \"#utility.yul\":1806:1815   */\n      dup6\n        /* \"#utility.yul\":1802:1824   */\n      add\n        /* \"#utility.yul\":1781:1834   */\n      tag_212\n      jump\t// in\n    tag_225:\n        /* \"#utility.yul\":1771:1834   */\n      swap2\n      pop\n        /* \"#utility.yul\":1727:1844   */\n      pop\n        /* \"#utility.yul\":1655:1851   */\n      swap3\n      swap2\n      pop\n      pop\n      jump\t// out\n        /* \"#utility.yul\":1857:2036   */\n    tag_226:\n      0x00\n        /* \"#utility.yul\":1947:1993   */\n      tag_228\n        /* \"#utility.yul\":1989:1992   */\n      dup4\n        /* \"#utility.yul\":1981:1987   */\n      dup4\n        /* \"#utility.yul\":1947:1993   */\n      tag_229\n      jump\t// in\n    tag_228:\n        /* \"#utility.yul\":2025:2029   */\n      0x20\n        /* \"#utility.yul\":2020:2023   */\n      dup4\n        /* \"#utility.yul\":2016:2030   */\n      add\n        /* \"#utility.yul\":2002:2030   */\n      swap1\n      pop\n        /* \"#utility.yul\":1937:2036   */\n      swap3\n      swap2\n      pop\n      pop\n      jump\t// out\n        /* \"#utility.yul\":2042:2160   */\n    tag_230:\n        /* \"#utility.yul\":2129:2153   */\n      tag_232\n        /* \"#utility.yul\":2147:2152   */\n      dup2\n        /* \"#utility.yul\":2129:2153   */\n      tag_233\n      jump\t// in\n    tag_232:\n        /* \"#utility.yul\":2124:2127   */\n      dup3\n        /* \"#utility.yul\":2117:2154   */\n      mstore\n        /* \"#utility.yul\":2107:2160   */\n      pop\n      pop\n      jump\t// out\n        /* \"#utility.yul\":2166:2323   */\n    tag_234:\n        /* \"#utility.yul\":2271:2316   */\n      tag_236\n        /* \"#utility.yul\":2291:2315   */\n      tag_237\n        /* \"#utility.yul\":2309:2314   */\n      dup3\n        /* \"#utility.yul\":2291:2315   */\n      tag_233\n      jump\t// in\n    tag_237:\n        /* \"#utility.yul\":2271:2316   */\n      tag_238\n      jump\t// in\n    tag_236:\n        /* \"#utility.yul\":2266:2269   */\n      dup3\n        /* \"#utility.yul\":2259:2317   */\n      mstore\n        /* \"#utility.yul\":2249:2323   */\n      pop\n      pop\n      jump\t// out\n        /* \"#utility.yul\":2361:3055   */\n    tag_239:\n        /* \"#utility.yul\":2497:2549   */\n      tag_241\n        /* \"#utility.yul\":2543:2548   */\n      dup2\n        /* \"#utility.yul\":2497:2549   */\n      tag_242\n      jump\t// in\n    tag_241:\n        /* \"#utility.yul\":2565:2649   */\n      tag_243\n        /* \"#utility.yul\":2642:2648   */\n      dup2\n        /* \"#utility.yul\":2637:2640   */\n      dup5\n        /* \"#utility.yul\":2565:2649   */\n      tag_244\n      jump\t// in\n    tag_243:\n        /* \"#utility.yul\":2558:2649   */\n      swap3\n      pop\n        /* \"#utility.yul\":2673:2727   */\n      tag_245\n        /* \"#utility.yul\":2721:2726   */\n      dup3\n        /* \"#utility.yul\":2673:2727   */\n      tag_246\n      jump\t// in\n    tag_245:\n        /* \"#utility.yul\":2750:2757   */\n      dup1\n        /* \"#utility.yul\":2781:2782   */\n      0x00\n        /* \"#utility.yul\":2766:3048   */\n    tag_247:\n        /* \"#utility.yul\":2791:2797   */\n      dup4\n        /* \"#utility.yul\":2788:2789   */\n      dup2\n        /* \"#utility.yul\":2785:2798   */\n      lt\n        /* \"#utility.yul\":2766:3048   */\n      iszero\n      tag_249\n      jumpi\n        /* \"#utility.yul\":2867:2873   */\n      dup2\n        /* \"#utility.yul\":2861:2874   */\n      mload\n        /* \"#utility.yul\":2894:2957   */\n      tag_250\n        /* \"#utility.yul\":2953:2956   */\n      dup8\n        /* \"#utility.yul\":2938:2951   */\n      dup3\n        /* \"#utility.yul\":2894:2957   */\n      tag_226\n      jump\t// in\n    tag_250:\n        /* \"#utility.yul\":2887:2957   */\n      swap7\n      pop\n        /* \"#utility.yul\":2980:3038   */\n      tag_251\n        /* \"#utility.yul\":3031:3037   */\n      dup4\n        /* \"#utility.yul\":2980:3038   */\n      tag_252\n      jump\t// in\n    tag_251:\n        /* \"#utility.yul\":2970:3038   */\n      swap3\n      pop\n        /* \"#utility.yul\":2826:3048   */\n      pop\n        /* \"#utility.yul\":2813:2814   */\n      0x01\n        /* \"#utility.yul\":2810:2811   */\n      dup2\n        /* \"#utility.yul\":2806:2815   */\n      add\n        /* \"#utility.yul\":2801:2815   */\n      swap1\n      pop\n        /* \"#utility.yul\":2766:3048   */\n      jump(tag_247)\n    tag_249:\n        /* \"#utility.yul\":2770:2784   */\n      pop\n        /* \"#utility.yul\":2473:3055   */\n      pop\n      pop\n      pop\n      pop\n      pop\n      jump\t// out\n        /* \"#utility.yul\":3061:3214   */\n    tag_253:\n        /* \"#utility.yul\":3159:3207   */\n      tag_255\n        /* \"#utility.yul\":3201:3206   */\n      dup2\n        /* \"#utility.yul\":3159:3207   */\n      tag_256\n      jump\t// in\n    tag_255:\n        /* \"#utility.yul\":3154:3157   */\n      dup3\n        /* \"#utility.yul\":3147:3208   */\n      mstore\n        /* \"#utility.yul\":3137:3214   */\n      pop\n      pop\n      jump\t// out\n        /* \"#utility.yul\":3220:3584   */\n    tag_257:\n      0x00\n        /* \"#utility.yul\":3336:3375   */\n      tag_259\n        /* \"#utility.yul\":3369:3374   */\n      dup3\n        /* \"#utility.yul\":3336:3375   */\n      tag_260\n      jump\t// in\n    tag_259:\n        /* \"#utility.yul\":3391:3462   */\n      tag_261\n        /* \"#utility.yul\":3455:3461   */\n      dup2\n        /* \"#utility.yul\":3450:3453   */\n      dup6\n        /* \"#utility.yul\":3391:3462   */\n      tag_262\n      jump\t// in\n    tag_261:\n        /* \"#utility.yul\":3384:3462   */\n      swap4\n      pop\n        /* \"#utility.yul\":3471:3523   */\n      tag_263\n        /* \"#utility.yul\":3516:3522   */\n      dup2\n        /* \"#utility.yul\":3511:3514   */\n      dup6\n        /* \"#utility.yul\":3504:3508   */\n      0x20\n        /* \"#utility.yul\":3497:3502   */\n      dup7\n        /* \"#utility.yul\":3493:3509   */\n      add\n        /* \"#utility.yul\":3471:3523   */\n      tag_264\n      jump\t// in\n    tag_263:\n        /* \"#utility.yul\":3548:3577   */\n      tag_265\n        /* \"#utility.yul\":3570:3576   */\n      dup2\n        /* \"#utility.yul\":3548:3577   */\n      tag_266\n      jump\t// in\n    tag_265:\n        /* \"#utility.yul\":3543:3546   */\n      dup5\n        /* \"#utility.yul\":3539:3578   */\n      add\n        /* \"#utility.yul\":3532:3578   */\n      swap2\n      pop\n        /* \"#utility.yul\":3312:3584   */\n      pop\n      swap3\n      swap2\n      pop\n      pop\n      jump\t// out\n        /* \"#utility.yul\":3590:3698   */\n    tag_229:\n        /* \"#utility.yul\":3667:3691   */\n      tag_268\n        /* \"#utility.yul\":3685:3690   */\n      dup2\n        /* \"#utility.yul\":3667:3691   */\n      tag_269\n      jump\t// in\n    tag_268:\n        /* \"#utility.yul\":3662:3665   */\n      dup3\n        /* \"#utility.yul\":3655:3692   */\n      mstore\n        /* \"#utility.yul\":3645:3698   */\n      pop\n      pop\n      jump\t// out\n        /* \"#utility.yul\":3704:3822   */\n    tag_270:\n        /* \"#utility.yul\":3791:3815   */\n      tag_272\n        /* \"#utility.yul\":3809:3814   */\n      dup2\n        /* \"#utility.yul\":3791:3815   */\n      tag_269\n      jump\t// in\n    tag_272:\n        /* \"#utility.yul\":3786:3789   */\n      dup3\n        /* \"#utility.yul\":3779:3816   */\n      mstore\n        /* \"#utility.yul\":3769:3822   */\n      pop\n      pop\n      jump\t// out\n        /* \"#utility.yul\":3828:3985   */\n    tag_273:\n        /* \"#utility.yul\":3933:3978   */\n      tag_275\n        /* \"#utility.yul\":3953:3977   */\n      tag_276\n        /* \"#utility.yul\":3971:3976   */\n      dup3\n        /* \"#utility.yul\":3953:3977   */\n      tag_269\n      jump\t// in\n    tag_276:\n        /* \"#utility.yul\":3933:3978   */\n      tag_277\n      jump\t// in\n    tag_275:\n        /* \"#utility.yul\":3928:3931   */\n      dup3\n        /* \"#utility.yul\":3921:3979   */\n      mstore\n        /* \"#utility.yul\":3911:3985   */\n      pop\n      pop\n      jump\t// out\n        /* \"#utility.yul\":3991:4529   */\n    tag_132:\n      0x00\n        /* \"#utility.yul\":4174:4249   */\n      tag_279\n        /* \"#utility.yul\":4245:4248   */\n      dup3\n        /* \"#utility.yul\":4236:4242   */\n      dup7\n        /* \"#utility.yul\":4174:4249   */\n      tag_273\n      jump\t// in\n    tag_279:\n        /* \"#utility.yul\":4274:4276   */\n      0x20\n        /* \"#utility.yul\":4269:4272   */\n      dup3\n        /* \"#utility.yul\":4265:4277   */\n      add\n        /* \"#utility.yul\":4258:4277   */\n      swap2\n      pop\n        /* \"#utility.yul\":4287:4362   */\n      tag_280\n        /* \"#utility.yul\":4358:4361   */\n      dup3\n        /* \"#utility.yul\":4349:4355   */\n      dup6\n        /* \"#utility.yul\":4287:4362   */\n      tag_234\n      jump\t// in\n    tag_280:\n        /* \"#utility.yul\":4387:4389   */\n      0x14\n        /* \"#utility.yul\":4382:4385   */\n      dup3\n        /* \"#utility.yul\":4378:4390   */\n      add\n        /* \"#utility.yul\":4371:4390   */\n      swap2\n      pop\n        /* \"#utility.yul\":4400:4475   */\n      tag_281\n        /* \"#utility.yul\":4471:4474   */\n      dup3\n        /* \"#utility.yul\":4462:4468   */\n      dup5\n        /* \"#utility.yul\":4400:4475   */\n      tag_273\n      jump\t// in\n    tag_281:\n        /* \"#utility.yul\":4500:4502   */\n      0x20\n        /* \"#utility.yul\":4495:4498   */\n      dup3\n        /* \"#utility.yul\":4491:4503   */\n      add\n        /* \"#utility.yul\":4484:4503   */\n      swap2\n      pop\n        /* \"#utility.yul\":4520:4523   */\n      dup2\n        /* \"#utility.yul\":4513:4523   */\n      swap1\n      pop\n        /* \"#utility.yul\":4163:4529   */\n      swap5\n      swap4\n      pop\n      pop\n      pop\n      pop\n      jump\t// out\n        /* \"#utility.yul\":4535:4757   */\n    tag_24:\n      0x00\n        /* \"#utility.yul\":4666:4668   */\n      0x20\n        /* \"#utility.yul\":4655:4664   */\n      dup3\n        /* \"#utility.yul\":4651:4669   */\n      add\n        /* \"#utility.yul\":4643:4669   */\n      swap1\n      pop\n        /* \"#utility.yul\":4679:4750   */\n      tag_283\n        /* \"#utility.yul\":4747:4748   */\n      0x00\n        /* \"#utility.yul\":4736:4745   */\n      dup4\n        /* \"#utility.yul\":4732:4749   */\n      add\n        /* \"#utility.yul\":4723:4729   */\n      dup5\n        /* \"#utility.yul\":4679:4750   */\n      tag_230\n      jump\t// in\n    tag_283:\n        /* \"#utility.yul\":4633:4757   */\n      swap3\n      swap2\n      pop\n      pop\n      jump\t// out\n        /* \"#utility.yul\":4763:5095   */\n    tag_59:\n      0x00\n        /* \"#utility.yul\":4922:4924   */\n      0x40\n        /* \"#utility.yul\":4911:4920   */\n      dup3\n        /* \"#utility.yul\":4907:4925   */\n      add\n        /* \"#utility.yul\":4899:4925   */\n      swap1\n      pop\n        /* \"#utility.yul\":4935:5006   */\n      tag_285\n        /* \"#utility.yul\":5003:5004   */\n      0x00\n        /* \"#utility.yul\":4992:5001   */\n      dup4\n        /* \"#utility.yul\":4988:5005   */\n      add\n        /* \"#utility.yul\":4979:4985   */\n      dup6\n        /* \"#utility.yul\":4935:5006   */\n      tag_230\n      jump\t// in\n    tag_285:\n        /* \"#utility.yul\":5016:5088   */\n      tag_286\n        /* \"#utility.yul\":5084:5086   */\n      0x20\n        /* \"#utility.yul\":5073:5082   */\n      dup4\n        /* \"#utility.yul\":5069:5087   */\n      add\n        /* \"#utility.yul\":5060:5066   */\n      dup5\n        /* \"#utility.yul\":5016:5088   */\n      tag_230\n      jump\t// in\n    tag_286:\n        /* \"#utility.yul\":4889:5095   */\n      swap4\n      swap3\n      pop\n      pop\n      pop\n      jump\t// out\n        /* \"#utility.yul\":5101:5543   */\n    tag_33:\n      0x00\n        /* \"#utility.yul\":5288:5290   */\n      0x60\n        /* \"#utility.yul\":5277:5286   */\n      dup3\n        /* \"#utility.yul\":5273:5291   */\n      add\n        /* \"#utility.yul\":5265:5291   */\n      swap1\n      pop\n        /* \"#utility.yul\":5301:5372   */\n      tag_288\n        /* \"#utility.yul\":5369:5370   */\n      0x00\n        /* \"#utility.yul\":5358:5367   */\n      dup4\n        /* \"#utility.yul\":5354:5371   */\n      add\n        /* \"#utility.yul\":5345:5351   */\n      dup7\n        /* \"#utility.yul\":5301:5372   */\n      tag_230\n      jump\t// in\n    tag_288:\n        /* \"#utility.yul\":5382:5454   */\n      tag_289\n        /* \"#utility.yul\":5450:5452   */\n      0x20\n        /* \"#utility.yul\":5439:5448   */\n      dup4\n        /* \"#utility.yul\":5435:5453   */\n      add\n        /* \"#utility.yul\":5426:5432   */\n      dup6\n        /* \"#utility.yul\":5382:5454   */\n      tag_230\n      jump\t// in\n    tag_289:\n        /* \"#utility.yul\":5464:5536   */\n      tag_290\n        /* \"#utility.yul\":5532:5534   */\n      0x40\n        /* \"#utility.yul\":5521:5530   */\n      dup4\n        /* \"#utility.yul\":5517:5535   */\n      add\n        /* \"#utility.yul\":5508:5514   */\n      dup5\n        /* \"#utility.yul\":5464:5536   */\n      tag_230\n      jump\t// in\n    tag_290:\n        /* \"#utility.yul\":5255:5543   */\n      swap5\n      swap4\n      pop\n      pop\n      pop\n      pop\n      jump\t// out\n        /* \"#utility.yul\":5549:5864   */\n    tag_38:\n      0x00\n        /* \"#utility.yul\":5726:5729   */\n      0xe0\n        /* \"#utility.yul\":5715:5724   */\n      dup3\n        /* \"#utility.yul\":5711:5730   */\n      add\n        /* \"#utility.yul\":5703:5730   */\n      swap1\n      pop\n        /* \"#utility.yul\":5740:5857   */\n      tag_292\n        /* \"#utility.yul\":5854:5855   */\n      0x00\n        /* \"#utility.yul\":5843:5852   */\n      dup4\n        /* \"#utility.yul\":5839:5856   */\n      add\n        /* \"#utility.yul\":5830:5836   */\n      dup5\n        /* \"#utility.yul\":5740:5857   */\n      tag_239\n      jump\t// in\n    tag_292:\n        /* \"#utility.yul\":5693:5864   */\n      swap3\n      swap2\n      pop\n      pop\n      jump\t// out\n        /* \"#utility.yul\":5870:6114   */\n    tag_106:\n      0x00\n        /* \"#utility.yul\":6012:6014   */\n      0x20\n        /* \"#utility.yul\":6001:6010   */\n      dup3\n        /* \"#utility.yul\":5997:6015   */\n      add\n        /* \"#utility.yul\":5989:6015   */\n      swap1\n      pop\n        /* \"#utility.yul\":6025:6107   */\n      tag_294\n        /* \"#utility.yul\":6104:6105   */\n      0x00\n        /* \"#utility.yul\":6093:6102   */\n      dup4\n        /* \"#utility.yul\":6089:6106   */\n      add\n        /* \"#utility.yul\":6080:6086   */\n      dup5\n        /* \"#utility.yul\":6025:6107   */\n      tag_253\n      jump\t// in\n    tag_294:\n        /* \"#utility.yul\":5979:6114   */\n      swap3\n      swap2\n      pop\n      pop\n      jump\t// out\n        /* \"#utility.yul\":6120:6433   */\n    tag_19:\n      0x00\n        /* \"#utility.yul\":6271:6273   */\n      0x20\n        /* \"#utility.yul\":6260:6269   */\n      dup3\n        /* \"#utility.yul\":6256:6274   */\n      add\n        /* \"#utility.yul\":6248:6274   */\n      swap1\n      pop\n        /* \"#utility.yul\":6320:6329   */\n      dup2\n        /* \"#utility.yul\":6314:6318   */\n      dup2\n        /* \"#utility.yul\":6310:6330   */\n      sub\n        /* \"#utility.yul\":6306:6307   */\n      0x00\n        /* \"#utility.yul\":6295:6304   */\n      dup4\n        /* \"#utility.yul\":6291:6308   */\n      add\n        /* \"#utility.yul\":6284:6331   */\n      mstore\n        /* \"#utility.yul\":6348:6426   */\n      tag_296\n        /* \"#utility.yul\":6421:6425   */\n      dup2\n        /* \"#utility.yul\":6412:6418   */\n      dup5\n        /* \"#utility.yul\":6348:6426   */\n      tag_257\n      jump\t// in\n    tag_296:\n        /* \"#utility.yul\":6340:6426   */\n      swap1\n      pop\n        /* \"#utility.yul\":6238:6433   */\n      swap3\n      swap2\n      pop\n      pop\n      jump\t// out\n        /* \"#utility.yul\":6439:6661   */\n    tag_102:\n      0x00\n        /* \"#utility.yul\":6570:6572   */\n      0x20\n        /* \"#utility.yul\":6559:6568   */\n      dup3\n        /* \"#utility.yul\":6555:6573   */\n      add\n        /* \"#utility.yul\":6547:6573   */\n      swap1\n      pop\n        /* \"#utility.yul\":6583:6654   */\n      tag_298\n        /* \"#utility.yul\":6651:6652   */\n      0x00\n        /* \"#utility.yul\":6640:6649   */\n      dup4\n        /* \"#utility.yul\":6636:6653   */\n      add\n        /* \"#utility.yul\":6627:6633   */\n      dup5\n        /* \"#utility.yul\":6583:6654   */\n      tag_270\n      jump\t// in\n    tag_298:\n        /* \"#utility.yul\":6537:6661   */\n      swap3\n      swap2\n      pop\n      pop\n      jump\t// out\n        /* \"#utility.yul\":6667:6950   */\n    tag_200:\n      0x00\n        /* \"#utility.yul\":6733:6735   */\n      0x40\n        /* \"#utility.yul\":6727:6736   */\n      mload\n        /* \"#utility.yul\":6717:6736   */\n      swap1\n      pop\n        /* \"#utility.yul\":6775:6779   */\n      dup2\n        /* \"#utility.yul\":6767:6773   */\n      dup2\n        /* \"#utility.yul\":6763:6780   */\n      add\n        /* \"#utility.yul\":6882:6888   */\n      dup2\n        /* \"#utility.yul\":6870:6880   */\n      dup2\n        /* \"#utility.yul\":6867:6889   */\n      lt\n        /* \"#utility.yul\":6846:6864   */\n      0xffffffffffffffff\n        /* \"#utility.yul\":6834:6844   */\n      dup3\n        /* \"#utility.yul\":6831:6865   */\n      gt\n        /* \"#utility.yul\":6828:6890   */\n      or\n        /* \"#utility.yul\":6825:6827   */\n      iszero\n      tag_300\n      jumpi\n        /* \"#utility.yul\":6893:6911   */\n      tag_301\n      tag_302\n      jump\t// in\n    tag_301:\n        /* \"#utility.yul\":6825:6827   */\n    tag_300:\n        /* \"#utility.yul\":6933:6943   */\n      dup1\n        /* \"#utility.yul\":6929:6931   */\n      0x40\n        /* \"#utility.yul\":6922:6944   */\n      mstore\n        /* \"#utility.yul\":6707:6950   */\n      pop\n      swap2\n      swap1\n      pop\n      jump\t// out\n        /* \"#utility.yul\":6956:7288   */\n    tag_199:\n      0x00\n        /* \"#utility.yul\":7108:7126   */\n      0xffffffffffffffff\n        /* \"#utility.yul\":7100:7106   */\n      dup3\n        /* \"#utility.yul\":7097:7127   */\n      gt\n        /* \"#utility.yul\":7094:7096   */\n      iszero\n      tag_304\n      jumpi\n        /* \"#utility.yul\":7130:7148   */\n      tag_305\n      tag_302\n      jump\t// in\n    tag_305:\n        /* \"#utility.yul\":7094:7096   */\n    tag_304:\n        /* \"#utility.yul\":7215:7219   */\n      0x1f\n        /* \"#utility.yul\":7211:7220   */\n      not\n        /* \"#utility.yul\":7204:7208   */\n      0x1f\n        /* \"#utility.yul\":7196:7202   */\n      dup4\n        /* \"#utility.yul\":7192:7209   */\n      add\n        /* \"#utility.yul\":7188:7221   */\n      and\n        /* \"#utility.yul\":7180:7221   */\n      swap1\n      pop\n        /* \"#utility.yul\":7276:7280   */\n      0x20\n        /* \"#utility.yul\":7270:7274   */\n      dup2\n        /* \"#utility.yul\":7266:7281   */\n      add\n        /* \"#utility.yul\":7258:7281   */\n      swap1\n      pop\n        /* \"#utility.yul\":7023:7288   */\n      swap2\n      swap1\n      pop\n      jump\t// out\n        /* \"#utility.yul\":7294:7392   */\n    tag_246:\n      0x00\n        /* \"#utility.yul\":7382:7385   */\n      dup2\n        /* \"#utility.yul\":7374:7385   */\n      swap1\n      pop\n        /* \"#utility.yul\":7364:7392   */\n      swap2\n      swap1\n      pop\n      jump\t// out\n        /* \"#utility.yul\":7398:7502   */\n    tag_242:\n      0x00\n        /* \"#utility.yul\":7491:7495   */\n      0x07\n        /* \"#utility.yul\":7481:7495   */\n      swap1\n      pop\n        /* \"#utility.yul\":7470:7502   */\n      swap2\n      swap1\n      pop\n      jump\t// out\n        /* \"#utility.yul\":7508:7607   */\n    tag_260:\n      0x00\n        /* \"#utility.yul\":7594:7599   */\n      dup2\n        /* \"#utility.yul\":7588:7600   */\n      mload\n        /* \"#utility.yul\":7578:7600   */\n      swap1\n      pop\n        /* \"#utility.yul\":7567:7607   */\n      swap2\n      swap1\n      pop\n      jump\t// out\n        /* \"#utility.yul\":7613:7724   */\n    tag_252:\n      0x00\n        /* \"#utility.yul\":7713:7717   */\n      0x20\n        /* \"#utility.yul\":7708:7711   */\n      dup3\n        /* \"#utility.yul\":7704:7718   */\n      add\n        /* \"#utility.yul\":7696:7718   */\n      swap1\n      pop\n        /* \"#utility.yul\":7686:7724   */\n      swap2\n      swap1\n      pop\n      jump\t// out\n        /* \"#utility.yul\":7730:7873   */\n    tag_244:\n      0x00\n        /* \"#utility.yul\":7864:7867   */\n      dup2\n        /* \"#utility.yul\":7849:7867   */\n      swap1\n      pop\n        /* \"#utility.yul\":7839:7873   */\n      swap3\n      swap2\n      pop\n      pop\n      jump\t// out\n        /* \"#utility.yul\":7879:8048   */\n    tag_262:\n      0x00\n        /* \"#utility.yul\":7997:8003   */\n      dup3\n        /* \"#utility.yul\":7992:7995   */\n      dup3\n        /* \"#utility.yul\":7985:8004   */\n      mstore\n        /* \"#utility.yul\":8037:8041   */\n      0x20\n        /* \"#utility.yul\":8032:8035   */\n      dup3\n        /* \"#utility.yul\":8028:8042   */\n      add\n        /* \"#utility.yul\":8013:8042   */\n      swap1\n      pop\n        /* \"#utility.yul\":7975:8048   */\n      swap3\n      swap2\n      pop\n      pop\n      jump\t// out\n        /* \"#utility.yul\":8054:8359   */\n    tag_90:\n      0x00\n        /* \"#utility.yul\":8113:8133   */\n      tag_313\n        /* \"#utility.yul\":8131:8132   */\n      dup3\n        /* \"#utility.yul\":8113:8133   */\n      tag_269\n      jump\t// in\n    tag_313:\n        /* \"#utility.yul\":8108:8133   */\n      swap2\n      pop\n        /* \"#utility.yul\":8147:8167   */\n      tag_314\n        /* \"#utility.yul\":8165:8166   */\n      dup4\n        /* \"#utility.yul\":8147:8167   */\n      tag_269\n      jump\t// in\n    tag_314:\n        /* \"#utility.yul\":8142:8167   */\n      swap3\n      pop\n        /* \"#utility.yul\":8301:8302   */\n      dup3\n        /* \"#utility.yul\":8233:8299   */\n      0xffffffffffffffffffffffffffffffffffffffffffffffffffffffffffffffff\n        /* \"#utility.yul\":8229:8303   */\n      sub\n        /* \"#utility.yul\":8226:8227   */\n      dup3\n        /* \"#utility.yul\":8223:8304   */\n      gt\n        /* \"#utility.yul\":8220:8222   */\n      iszero\n      tag_315\n      jumpi\n        /* \"#utility.yul\":8307:8325   */\n      tag_316\n      tag_317\n      jump\t// in\n    tag_316:\n        /* \"#utility.yul\":8220:8222   */\n    tag_315:\n        /* \"#utility.yul\":8351:8352   */\n      dup3\n        /* \"#utility.yul\":8348:8349   */\n      dup3\n        /* \"#utility.yul\":8344:8353   */\n      add\n        /* \"#utility.yul\":8337:8353   */\n      swap1\n      pop\n        /* \"#utility.yul\":8098:8359   */\n      swap3\n      swap2\n      pop\n      pop\n      jump\t// out\n        /* \"#utility.yul\":8365:8713   */\n    tag_129:\n      0x00\n        /* \"#utility.yul\":8428:8448   */\n      tag_319\n        /* \"#utility.yul\":8446:8447   */\n      dup3\n        /* \"#utility.yul\":8428:8448   */\n      tag_269\n      jump\t// in\n    tag_319:\n        /* \"#utility.yul\":8423:8448   */\n      swap2\n      pop\n        /* \"#utility.yul\":8462:8482   */\n      tag_320\n        /* \"#utility.yul\":8480:8481   */\n      dup4\n        /* \"#utility.yul\":8462:8482   */\n      tag_269\n      jump\t// in\n    tag_320:\n        /* \"#utility.yul\":8457:8482   */\n      swap3\n      pop\n        /* \"#utility.yul\":8650:8651   */\n      dup2\n        /* \"#utility.yul\":8582:8648   */\n      0xffffffffffffffffffffffffffffffffffffffffffffffffffffffffffffffff\n        /* \"#utility.yul\":8578:8652   */\n      div\n        /* \"#utility.yul\":8575:8576   */\n      dup4\n        /* \"#utility.yul\":8572:8653   */\n      gt\n        /* \"#utility.yul\":8567:8568   */\n      dup3\n        /* \"#utility.yul\":8560:8569   */\n      iszero\n        /* \"#utility.yul\":8553:8570   */\n      iszero\n        /* \"#utility.yul\":8549:8654   */\n      and\n        /* \"#utility.yul\":8546:8548   */\n      iszero\n      tag_321\n      jumpi\n        /* \"#utility.yul\":8657:8675   */\n      tag_322\n      tag_317\n      jump\t// in\n    tag_322:\n        /* \"#utility.yul\":8546:8548   */\n    tag_321:\n        /* \"#utility.yul\":8705:8706   */\n      dup3\n        /* \"#utility.yul\":8702:8703   */\n      dup3\n        /* \"#utility.yul\":8698:8707   */\n      mul\n        /* \"#utility.yul\":8687:8707   */\n      swap1\n      pop\n        /* \"#utility.yul\":8413:8713   */\n      swap3\n      swap2\n      pop\n      pop\n      jump\t// out\n        /* \"#utility.yul\":8719:8910   */\n    tag_79:\n      0x00\n        /* \"#utility.yul\":8779:8799   */\n      tag_324\n        /* \"#utility.yul\":8797:8798   */\n      dup3\n        /* \"#utility.yul\":8779:8799   */\n      tag_269\n      jump\t// in\n    tag_324:\n        /* \"#utility.yul\":8774:8799   */\n      swap2\n      pop\n        /* \"#utility.yul\":8813:8833   */\n      tag_325\n        /* \"#utility.yul\":8831:8832   */\n      dup4\n        /* \"#utility.yul\":8813:8833   */\n      tag_269\n      jump\t// in\n    tag_325:\n        /* \"#utility.yul\":8808:8833   */\n      swap3\n      pop\n        /* \"#utility.yul\":8852:8853   */\n      dup3\n        /* \"#utility.yul\":8849:8850   */\n      dup3\n        /* \"#utility.yul\":8846:8854   */\n      lt\n        /* \"#utility.yul\":8843:8845   */\n      iszero\n      tag_326\n      jumpi\n        /* \"#utility.yul\":8857:8875   */\n      tag_327\n      tag_317\n      jump\t// in\n    tag_327:\n        /* \"#utility.yul\":8843:8845   */\n    tag_326:\n        /* \"#utility.yul\":8902:8903   */\n      dup3\n        /* \"#utility.yul\":8899:8900   */\n      dup3\n        /* \"#utility.yul\":8895:8904   */\n      sub\n        /* \"#utility.yul\":8887:8904   */\n      swap1\n      pop\n        /* \"#utility.yul\":8764:8910   */\n      swap3\n      swap2\n      pop\n      pop\n      jump\t// out\n        /* \"#utility.yul\":8916:9012   */\n    tag_233:\n      0x00\n        /* \"#utility.yul\":8982:9006   */\n      tag_329\n        /* \"#utility.yul\":9000:9005   */\n      dup3\n        /* \"#utility.yul\":8982:9006   */\n      tag_330\n      jump\t// in\n    tag_329:\n        /* \"#utility.yul\":8971:9006   */\n      swap1\n      pop\n        /* \"#utility.yul\":8961:9012   */\n      swap2\n      swap1\n      pop\n      jump\t// out\n        /* \"#utility.yul\":9018:9144   */\n    tag_330:\n      0x00\n        /* \"#utility.yul\":9095:9137   */\n      0xffffffffffffffffffffffffffffffffffffffff\n        /* \"#utility.yul\":9088:9093   */\n      dup3\n        /* \"#utility.yul\":9084:9138   */\n      and\n        /* \"#utility.yul\":9073:9138   */\n      swap1\n      pop\n        /* \"#utility.yul\":9063:9144   */\n      swap2\n      swap1\n      pop\n      jump\t// out\n        /* \"#utility.yul\":9150:9227   */\n    tag_269:\n      0x00\n        /* \"#utility.yul\":9216:9221   */\n      dup2\n        /* \"#utility.yul\":9205:9221   */\n      swap1\n      pop\n        /* \"#utility.yul\":9195:9227   */\n      swap2\n      swap1\n      pop\n      jump\t// out\n        /* \"#utility.yul\":9233:9357   */\n    tag_256:\n      0x00\n        /* \"#utility.yul\":9327:9351   */\n      tag_334\n        /* \"#utility.yul\":9345:9350   */\n      dup3\n        /* \"#utility.yul\":9327:9351   */\n      tag_269\n      jump\t// in\n    tag_334:\n        /* \"#utility.yul\":9314:9351   */\n      swap1\n      pop\n        /* \"#utility.yul\":9304:9357   */\n      swap2\n      swap1\n      pop\n      jump\t// out\n        /* \"#utility.yul\":9363:9517   */\n    tag_203:\n        /* \"#utility.yul\":9447:9453   */\n      dup3\n        /* \"#utility.yul\":9442:9445   */\n      dup2\n        /* \"#utility.yul\":9437:9440   */\n      dup4\n        /* \"#utility.yul\":9424:9454   */\n      calldatacopy\n        /* \"#utility.yul\":9509:9510   */\n      0x00\n        /* \"#utility.yul\":9500:9506   */\n      dup4\n        /* \"#utility.yul\":9495:9498   */\n      dup4\n        /* \"#utility.yul\":9491:9507   */\n      add\n        /* \"#utility.yul\":9484:9511   */\n      mstore\n        /* \"#utility.yul\":9414:9517   */\n      pop\n      pop\n      pop\n      jump\t// out\n        /* \"#utility.yul\":9523:9830   */\n    tag_264:\n        /* \"#utility.yul\":9591:9592   */\n      0x00\n        /* \"#utility.yul\":9601:9714   */\n    tag_337:\n        /* \"#utility.yul\":9615:9621   */\n      dup4\n        /* \"#utility.yul\":9612:9613   */\n      dup2\n        /* \"#utility.yul\":9609:9622   */\n      lt\n        /* \"#utility.yul\":9601:9714   */\n      iszero\n      tag_339\n      jumpi\n        /* \"#utility.yul\":9700:9701   */\n      dup1\n        /* \"#utility.yul\":9695:9698   */\n      dup3\n        /* \"#utility.yul\":9691:9702   */\n      add\n        /* \"#utility.yul\":9685:9703   */\n      mload\n        /* \"#utility.yul\":9681:9682   */\n      dup2\n        /* \"#utility.yul\":9676:9679   */\n      dup5\n        /* \"#utility.yul\":9672:9683   */\n      add\n        /* \"#utility.yul\":9665:9704   */\n      mstore\n        /* \"#utility.yul\":9637:9639   */\n      0x20\n        /* \"#utility.yul\":9634:9635   */\n      dup2\n        /* \"#utility.yul\":9630:9640   */\n      add\n        /* \"#utility.yul\":9625:9640   */\n      swap1\n      pop\n        /* \"#utility.yul\":9601:9714   */\n      jump(tag_337)\n    tag_339:\n        /* \"#utility.yul\":9732:9738   */\n      dup4\n        /* \"#utility.yul\":9729:9730   */\n      dup2\n        /* \"#utility.yul\":9726:9739   */\n      gt\n        /* \"#utility.yul\":9723:9725   */\n      iszero\n      tag_340\n      jumpi\n        /* \"#utility.yul\":9812:9813   */\n      0x00\n        /* \"#utility.yul\":9803:9809   */\n      dup5\n        /* \"#utility.yul\":9798:9801   */\n      dup5\n        /* \"#utility.yul\":9794:9810   */\n      add\n        /* \"#utility.yul\":9787:9814   */\n      mstore\n        /* \"#utility.yul\":9723:9725   */\n    tag_340:\n        /* \"#utility.yul\":9572:9830   */\n      pop\n      pop\n      pop\n      pop\n      jump\t// out\n        /* \"#utility.yul\":9836:10156   */\n    tag_64:\n      0x00\n        /* \"#utility.yul\":9917:9918   */\n      0x02\n        /* \"#utility.yul\":9911:9915   */\n      dup3\n        /* \"#utility.yul\":9907:9919   */\n      div\n        /* \"#utility.yul\":9897:9919   */\n      swap1\n      pop\n        /* \"#utility.yul\":9964:9965   */\n      0x01\n        /* \"#utility.yul\":9958:9962   */\n      dup3\n        /* \"#utility.yul\":9954:9966   */\n      and\n        /* \"#utility.yul\":9985:10003   */\n      dup1\n        /* \"#utility.yul\":9975:9977   */\n      tag_342\n      jumpi\n        /* \"#utility.yul\":10041:10045   */\n      0x7f\n        /* \"#utility.yul\":10033:10039   */\n      dup3\n        /* \"#utility.yul\":10029:10046   */\n      and\n        /* \"#utility.yul\":10019:10046   */\n      swap2\n      pop\n        /* \"#utility.yul\":9975:9977   */\n    tag_342:\n        /* \"#utility.yul\":10103:10105   */\n      0x20\n        /* \"#utility.yul\":10095:10101   */\n      dup3\n        /* \"#utility.yul\":10092:10106   */\n      lt\n        /* \"#utility.yul\":10072:10090   */\n      dup2\n        /* \"#utility.yul\":10069:10107   */\n      eq\n        /* \"#utility.yul\":10066:10068   */\n      iszero\n      tag_343\n      jumpi\n        /* \"#utility.yul\":10122:10140   */\n      tag_344\n      tag_345\n      jump\t// in\n    tag_344:\n        /* \"#utility.yul\":10066:10068   */\n    tag_343:\n        /* \"#utility.yul\":9887:10156   */\n      pop\n      swap2\n      swap1\n      pop\n      jump\t// out\n        /* \"#utility.yul\":10162:10395   */\n    tag_94:\n      0x00\n        /* \"#utility.yul\":10224:10248   */\n      tag_347\n        /* \"#utility.yul\":10242:10247   */\n      dup3\n        /* \"#utility.yul\":10224:10248   */\n      tag_269\n      jump\t// in\n    tag_347:\n        /* \"#utility.yul\":10215:10248   */\n      swap2\n      pop\n        /* \"#utility.yul\":10270:10336   */\n      0xffffffffffffffffffffffffffffffffffffffffffffffffffffffffffffffff\n        /* \"#utility.yul\":10263:10268   */\n      dup3\n        /* \"#utility.yul\":10260:10337   */\n      eq\n        /* \"#utility.yul\":10257:10259   */\n      iszero\n      tag_348\n      jumpi\n        /* \"#utility.yul\":10340:10358   */\n      tag_349\n      tag_317\n      jump\t// in\n    tag_349:\n        /* \"#utility.yul\":10257:10259   */\n    tag_348:\n        /* \"#utility.yul\":10387:10388   */\n      0x01\n        /* \"#utility.yul\":10380:10385   */\n      dup3\n        /* \"#utility.yul\":10376:10389   */\n      add\n        /* \"#utility.yul\":10369:10389   */\n      swap1\n      pop\n        /* \"#utility.yul\":10205:10395   */\n      swap2\n      swap1\n      pop\n      jump\t// out\n        /* \"#utility.yul\":10401:10501   */\n    tag_238:\n      0x00\n        /* \"#utility.yul\":10469:10495   */\n      tag_351\n        /* \"#utility.yul\":10489:10494   */\n      dup3\n        /* \"#utility.yul\":10469:10495   */\n      tag_352\n      jump\t// in\n    tag_351:\n        /* \"#utility.yul\":10458:10495   */\n      swap1\n      pop\n        /* \"#utility.yul\":10448:10501   */\n      swap2\n      swap1\n      pop\n      jump\t// out\n        /* \"#utility.yul\":10507:10601   */\n    tag_352:\n      0x00\n        /* \"#utility.yul\":10575:10595   */\n      tag_354\n        /* \"#utility.yul\":10589:10594   */\n      dup3\n        /* \"#utility.yul\":10575:10595   */\n      tag_355\n      jump\t// in\n    tag_354:\n        /* \"#utility.yul\":10564:10595   */\n      swap1\n      pop\n        /* \"#utility.yul\":10554:10601   */\n      swap2\n      swap1\n      pop\n      jump\t// out\n        /* \"#utility.yul\":10607:10686   */\n    tag_277:\n      0x00\n        /* \"#utility.yul\":10675:10680   */\n      dup2\n        /* \"#utility.yul\":10664:10680   */\n      swap1\n      pop\n        /* \"#utility.yul\":10654:10686   */\n      swap2\n      swap1\n      pop\n      jump\t// out\n        /* \"#utility.yul\":10692:10868   */\n    tag_134:\n      0x00\n        /* \"#utility.yul\":10741:10761   */\n      tag_358\n        /* \"#utility.yul\":10759:10760   */\n      dup3\n        /* \"#utility.yul\":10741:10761   */\n      tag_269\n      jump\t// in\n    tag_358:\n        /* \"#utility.yul\":10736:10761   */\n      swap2\n      pop\n        /* \"#utility.yul\":10775:10795   */\n      tag_359\n        /* \"#utility.yul\":10793:10794   */\n      dup4\n        /* \"#utility.yul\":10775:10795   */\n      tag_269\n      jump\t// in\n    tag_359:\n        /* \"#utility.yul\":10770:10795   */\n      swap3\n      pop\n        /* \"#utility.yul\":10814:10815   */\n      dup3\n        /* \"#utility.yul\":10804:10806   */\n      tag_360\n      jumpi\n        /* \"#utility.yul\":10819:10837   */\n      tag_361\n      tag_362\n      jump\t// in\n    tag_361:\n        /* \"#utility.yul\":10804:10806   */\n    tag_360:\n        /* \"#utility.yul\":10860:10861   */\n      dup3\n        /* \"#utility.yul\":10857:10858   */\n      dup3\n        /* \"#utility.yul\":10853:10862   */\n      mod\n        /* \"#utility.yul\":10848:10862   */\n      swap1\n      pop\n        /* \"#utility.yul\":10726:10868   */\n      swap3\n      swap2\n      pop\n      pop\n      jump\t// out\n        /* \"#utility.yul\":10874:11054   */\n    tag_317:\n        /* \"#utility.yul\":10922:10999   */\n      0x4e487b7100000000000000000000000000000000000000000000000000000000\n        /* \"#utility.yul\":10919:10920   */\n      0x00\n        /* \"#utility.yul\":10912:11000   */\n      mstore\n        /* \"#utility.yul\":11019:11023   */\n      0x11\n        /* \"#utility.yul\":11016:11017   */\n      0x04\n        /* \"#utility.yul\":11009:11024   */\n      mstore\n        /* \"#utility.yul\":11043:11047   */\n      0x24\n        /* \"#utility.yul\":11040:11041   */\n      0x00\n        /* \"#utility.yul\":11033:11048   */\n      revert\n        /* \"#utility.yul\":11060:11240   */\n    tag_362:\n        /* \"#utility.yul\":11108:11185   */\n      0x4e487b7100000000000000000000000000000000000000000000000000000000\n        /* \"#utility.yul\":11105:11106   */\n      0x00\n        /* \"#utility.yul\":11098:11186   */\n      mstore\n        /* \"#utility.yul\":11205:11209   */\n      0x12\n        /* \"#utility.yul\":11202:11203   */\n      0x04\n        /* \"#utility.yul\":11195:11210   */\n      mstore\n        /* \"#utility.yul\":11229:11233   */\n      0x24\n        /* \"#utility.yul\":11226:11227   */\n      0x00\n        /* \"#utility.yul\":11219:11234   */\n      revert\n        /* \"#utility.yul\":11246:11426   */\n    tag_345:\n        /* \"#utility.yul\":11294:11371   */\n      0x4e487b7100000000000000000000000000000000000000000000000000000000\n        /* \"#utility.yul\":11291:11292   */\n      0x00\n        /* \"#utility.yul\":11284:11372   */\n      mstore\n        /* \"#utility.yul\":11391:11395   */\n      0x22\n        /* \"#utility.yul\":11388:11389   */\n      0x04\n        /* \"#utility.yul\":11381:11396   */\n      mstore\n        /* \"#utility.yul\":11415:11419   */\n      0x24\n        /* \"#utility.yul\":11412:11413   */\n      0x00\n        /* \"#utility.yul\":11405:11420   */\n      revert\n        /* \"#utility.yul\":11432:11612   */\n    tag_302:\n        /* \"#utility.yul\":11480:11557   */\n      0x4e487b7100000000000000000000000000000000000000000000000000000000\n        /* \"#utility.yul\":11477:11478   */\n      0x00\n        /* \"#utility.yul\":11470:11558   */\n      mstore\n        /* \"#utility.yul\":11577:11581   */\n      0x41\n        /* \"#utility.yul\":11574:11575   */\n      0x04\n        /* \"#utility.yul\":11567:11582   */\n      mstore\n        /* \"#utility.yul\":11601:11605   */\n      0x24\n        /* \"#utility.yul\":11598:11599   */\n      0x00\n        /* \"#utility.yul\":11591:11606   */\n      revert\n        /* \"#utility.yul\":11618:11720   */\n    tag_266:\n      0x00\n        /* \"#utility.yul\":11710:11712   */\n      0x1f\n        /* \"#utility.yul\":11706:11713   */\n      not\n        /* \"#utility.yul\":11701:11703   */\n      0x1f\n        /* \"#utility.yul\":11694:11699   */\n      dup4\n        /* \"#utility.yul\":11690:11704   */\n      add\n        /* \"#utility.yul\":11686:11714   */\n      and\n        /* \"#utility.yul\":11676:11714   */\n      swap1\n      pop\n        /* \"#utility.yul\":11666:11720   */\n      swap2\n      swap1\n      pop\n      jump\t// out\n        /* \"#utility.yul\":11726:11820   */\n    tag_355:\n      0x00\n        /* \"#utility.yul\":11807:11812   */\n      dup2\n        /* \"#utility.yul\":11803:11805   */\n      0x60\n        /* \"#utility.yul\":11799:11813   */\n      shl\n        /* \"#utility.yul\":11778:11813   */\n      swap1\n      pop\n        /* \"#utility.yul\":11768:11820   */\n      swap2\n      swap1\n      pop\n      jump\t// out\n        /* \"#utility.yul\":11826:11948   */\n    tag_207:\n        /* \"#utility.yul\":11899:11923   */\n      tag_370\n        /* \"#utility.yul\":11917:11922   */\n      dup2\n        /* \"#utility.yul\":11899:11923   */\n      tag_233\n      jump\t// in\n    tag_370:\n        /* \"#utility.yul\":11892:11897   */\n      dup2\n        /* \"#utility.yul\":11889:11924   */\n      eq\n        /* \"#utility.yul\":11879:11881   */\n      tag_371\n      jumpi\n        /* \"#utility.yul\":11938:11939   */\n      0x00\n        /* \"#utility.yul\":11935:11936   */\n      dup1\n        /* \"#utility.yul\":11928:11940   */\n      revert\n        /* \"#utility.yul\":11879:11881   */\n    tag_371:\n        /* \"#utility.yul\":11869:11948   */\n      pop\n      jump\t// out\n        /* \"#utility.yul\":11954:12076   */\n    tag_215:\n        /* \"#utility.yul\":12027:12051   */\n      tag_373\n        /* \"#utility.yul\":12045:12050   */\n      dup2\n        /* \"#utility.yul\":12027:12051   */\n      tag_269\n      jump\t// in\n    tag_373:\n        /* \"#utility.yul\":12020:12025   */\n      dup2\n        /* \"#utility.yul\":12017:12052   */\n      eq\n        /* \"#utility.yul\":12007:12009   */\n      tag_374\n      jumpi\n        /* \"#utility.yul\":12066:12067   */\n      0x00\n        /* \"#utility.yul\":12063:12064   */\n      dup1\n        /* \"#utility.yul\":12056:12068   */\n      revert\n        /* \"#utility.yul\":12007:12009   */\n    tag_374:\n        /* \"#utility.yul\":11997:12076   */\n      pop\n      jump\t// out\n\n    auxdata: 0xa2646970667358221220e53e22606025155639d761209e09096959a7dde5219dc75ca3e880c070d8cb4064736f6c63430008000033\n}\n",
    "bytecode": {
      "linkReferences": {},
      "object": "608060405260076001556040518060600160405280600160ff168152602001600260ff168152602001600360ff1681525060029060036200004292919062000061565b50600060085560006009553480156200005a57600080fd5b50620000ca565b826003810192821562000098579160200282015b8281111562000097578251829060ff1690559160200191906001019062000075565b5b509050620000a79190620000ab565b5090565b5b80821115620000c6576000816000905550600101620000ac565b5090565b61199780620000da6000396000f3fe6080604052600436106100915760003560e01c80637d06cfda116100595780637d06cfda146101725780639e7a13ad146101af578063e2a04b62146101ec578063eb6b3a3314610229578063fc81312a1461025557610091565b806336c8a4e1146100965780633738fc6b146100d35780636132b3f7146100fe57806364d5756b1461011a5780636b3c4cff14610147575b600080fd5b3480156100a257600080fd5b506100bd60048036038101906100b891906112fb565b61026c565b6040516100ca9190611524565b60405180910390f35b3480156100df57600080fd5b506100e861030c565b6040516100f59190611473565b60405180910390f35b610118600480360381019061011391906112ba565b610429565b005b34801561012657600080fd5b5061012f61070d565b60405161013e939291906114b7565b60405180910390f35b34801561015357600080fd5b5061015c610a4d565b60405161016991906114ee565b60405180910390f35b34801561017e57600080fd5b50610199600480360381019061019491906112fb565b610b63565b6040516101a69190611473565b60405180910390f35b3480156101bb57600080fd5b506101d660048036038101906101d191906112fb565b610b96565b6040516101e39190611524565b60405180910390f35b3480156101f857600080fd5b50610213600480360381019061020e9190611291565b610c48565b6040516102209190611524565b60405180910390f35b34801561023557600080fd5b5061023e610ce8565b60405161024c92919061148e565b60405180910390f35b34801561026157600080fd5b5061026a610f16565b005b6005602052806000526040600020600091509050805461028b9061177f565b80601f01602080910402602001604051908101604052809291908181526020018280546102b79061177f565b80156103045780601f106102d957610100808354040283529160200191610304565b820191906000526020600020905b8154815290600101906020018083116102e757829003601f168201915b505050505081565b6000610316611047565b600a600060078110610351577f4e487b7100000000000000000000000000000000000000000000000000000000600052603260045260246000fd5b0160009054906101000a900473ffffffffffffffffffffffffffffffffffffffff16816000600181106103ad577f4e487b7100000000000000000000000000000000000000000000000000000000600052603260045260246000fd5b602002019073ffffffffffffffffffffffffffffffffffffffff16908173ffffffffffffffffffffffffffffffffffffffff16815250508060006001811061041e577f4e487b7100000000000000000000000000000000000000000000000000000000600052603260045260246000fd5b602002015191505090565b662386f26fc100003411156104985760003390508073ffffffffffffffffffffffffffffffffffffffff166108fc662386f26fc100003461046a91906116bb565b9081150290604051600060405180830381858888f19350505050158015610495573d6000803e3d6000fd5b50505b60006040518060200160405280838152509080600181540180825580915050600190039060005260206000200160009091909190915060008201518160000190805190602001906104ea929190611069565b50505060016000805490506104ff91906116bb565b6008819055506000600190505b600160085461051b919061160b565b811015610577576008546018826007811061055f577f4e487b7100000000000000000000000000000000000000000000000000000000600052603260045260246000fd5b0181905550808061056f906117b1565b91505061050c565b503360066000600854815260200190815260200160002060006101000a81548173ffffffffffffffffffffffffffffffffffffffff021916908373ffffffffffffffffffffffffffffffffffffffff160217905550600060085481548110610608577f4e487b7100000000000000000000000000000000000000000000000000000000600052603260045260246000fd5b90600052602060002001600001600760003373ffffffffffffffffffffffffffffffffffffffff1673ffffffffffffffffffffffffffffffffffffffff1681526020019081526020016000209080546106609061177f565b61066b9291906110ef565b506008600081548092919061067f906117b1565b91905055507f0f7680ac9ccd6aae030a017c63f21c417f13750f6860bae8bb5d00c70817b4606008546040516106b59190611546565b60405180910390a16005600854111561070a576106d0610f16565b7f0f7680ac9ccd6aae030a017c63f21c417f13750f6860bae8bb5d00c70817b4606107e56040516107019190611509565b60405180910390a15b50565b600080600061071a61117c565b600a600360078110610755577f4e487b7100000000000000000000000000000000000000000000000000000000600052603260045260246000fd5b0160009054906101000a900473ffffffffffffffffffffffffffffffffffffffff16816000600381106107b1577f4e487b7100000000000000000000000000000000000000000000000000000000600052603260045260246000fd5b602002019073ffffffffffffffffffffffffffffffffffffffff16908173ffffffffffffffffffffffffffffffffffffffff1681525050600a600460078110610823577f4e487b7100000000000000000000000000000000000000000000000000000000600052603260045260246000fd5b0160009054906101000a900473ffffffffffffffffffffffffffffffffffffffff168160016003811061087f577f4e487b7100000000000000000000000000000000000000000000000000000000600052603260045260246000fd5b602002019073ffffffffffffffffffffffffffffffffffffffff16908173ffffffffffffffffffffffffffffffffffffffff1681525050600a6005600781106108f1577f4e487b7100000000000000000000000000000000000000000000000000000000600052603260045260246000fd5b0160009054906101000a900473ffffffffffffffffffffffffffffffffffffffff168160026003811061094d577f4e487b7100000000000000000000000000000000000000000000000000000000600052603260045260246000fd5b602002019073ffffffffffffffffffffffffffffffffffffffff16908173ffffffffffffffffffffffffffffffffffffffff1681525050806000600381106109be577f4e487b7100000000000000000000000000000000000000000000000000000000600052603260045260246000fd5b6020020151816001600381106109fd577f4e487b7100000000000000000000000000000000000000000000000000000000600052603260045260246000fd5b602002015182600260038110610a3c577f4e487b7100000000000000000000000000000000000000000000000000000000600052603260045260246000fd5b602002015193509350935050909192565b610a5561119e565b60005b6006811015610b1f57600154816003610a719190611661565b42610a7c919061160b565b33600954604051602001610a9293929190611436565b6040516020818303038152906040528051906020012060001c610ab59190611828565b60118260078110610aef577f4e487b7100000000000000000000000000000000000000000000000000000000600052603260045260246000fd5b018190555060096000815480929190610b07906117b1565b91905055508080610b17906117b1565b915050610a58565b506011600780602002604051908101604052809291908260078015610b59576020028201915b815481526020019060010190808311610b45575b5050505050905090565b60066020528060005260406000206000915054906101000a900473ffffffffffffffffffffffffffffffffffffffff1681565b60008181548110610ba657600080fd5b90600052602060002001600091509050806000018054610bc59061177f565b80601f0160208091040260200160405190810160405280929190818152602001828054610bf19061177f565b8015610c3e5780601f10610c1357610100808354040283529160200191610c3e565b820191906000526020600020905b815481529060010190602001808311610c2157829003601f168201915b5050505050905081565b60076020528060005260406000206000915090508054610c679061177f565b80601f0160208091040260200160405190810160405280929190818152602001828054610c939061177f565b8015610ce05780601f10610cb557610100808354040283529160200191610ce0565b820191906000526020600020905b815481529060010190602001808311610cc357829003601f168201915b505050505081565b600080610cf36111c0565b600a600160078110610d2e577f4e487b7100000000000000000000000000000000000000000000000000000000600052603260045260246000fd5b0160009054906101000a900473ffffffffffffffffffffffffffffffffffffffff1681600060028110610d8a577f4e487b7100000000000000000000000000000000000000000000000000000000600052603260045260246000fd5b602002019073ffffffffffffffffffffffffffffffffffffffff16908173ffffffffffffffffffffffffffffffffffffffff1681525050600a600260078110610dfc577f4e487b7100000000000000000000000000000000000000000000000000000000600052603260045260246000fd5b0160009054906101000a900473ffffffffffffffffffffffffffffffffffffffff1681600160028110610e58577f4e487b7100000000000000000000000000000000000000000000000000000000600052603260045260246000fd5b602002019073ffffffffffffffffffffffffffffffffffffffff16908173ffffffffffffffffffffffffffffffffffffffff168152505080600060028110610ec9577f4e487b7100000000000000000000000000000000000000000000000000000000600052603260045260246000fd5b602002015181600160028110610f08577f4e487b7100000000000000000000000000000000000000000000000000000000600052603260045260246000fd5b602002015192509250509091565b610f1e610a4d565b5060005b6006811015611026576006600060118360078110610f69577f4e487b7100000000000000000000000000000000000000000000000000000000600052603260045260246000fd5b0154815260200190815260200160002060009054906101000a900473ffffffffffffffffffffffffffffffffffffffff16600a8260078110610fd4577f4e487b7100000000000000000000000000000000000000000000000000000000600052603260045260246000fd5b0160006101000a81548173ffffffffffffffffffffffffffffffffffffffff021916908373ffffffffffffffffffffffffffffffffffffffff160217905550808061101e906117b1565b915050610f22565b5061102f61030c565b50611038610ce8565b505061104261070d565b505050565b6040518060200160405280600190602082028036833780820191505090505090565b8280546110759061177f565b90600052602060002090601f01602090048101928261109757600085556110de565b82601f106110b057805160ff19168380011785556110de565b828001600101855582156110de579182015b828111156110dd5782518255916020019190600101906110c2565b5b5090506110eb91906111e2565b5090565b8280546110fb9061177f565b90600052602060002090601f01602090048101928261111d576000855561116b565b82601f1061112e578054855561116b565b8280016001018555821561116b57600052602060002091601f016020900482015b8281111561116a57825482559160010191906001019061114f565b5b50905061117891906111e2565b5090565b6040518060600160405280600390602082028036833780820191505090505090565b6040518060e00160405280600790602082028036833780820191505090505090565b6040518060400160405280600290602082028036833780820191505090505090565b5b808211156111fb5760008160009055506001016111e3565b5090565b600061121261120d84611592565b611561565b90508281526020810184848401111561122a57600080fd5b61123584828561173d565b509392505050565b60008135905061124c81611933565b92915050565b600082601f83011261126357600080fd5b81356112738482602086016111ff565b91505092915050565b60008135905061128b8161194a565b92915050565b6000602082840312156112a357600080fd5b60006112b18482850161123d565b91505092915050565b6000602082840312156112cc57600080fd5b600082013567ffffffffffffffff8111156112e657600080fd5b6112f284828501611252565b91505092915050565b60006020828403121561130d57600080fd5b600061131b8482850161127c565b91505092915050565b60006113308383611401565b60208301905092915050565b611345816116ef565b82525050565b61135c611357826116ef565b6117fa565b82525050565b61136b816115cc565b61137581846115ef565b9250611380826115c2565b8060005b838110156113b15781516113988782611324565b96506113a3836115e2565b925050600181019050611384565b505050505050565b6113c28161172b565b82525050565b60006113d3826115d7565b6113dd81856115fa565b93506113ed81856020860161174c565b6113f681611915565b840191505092915050565b61140a81611721565b82525050565b61141981611721565b82525050565b61143061142b82611721565b61181e565b82525050565b6000611442828661141f565b602082019150611452828561134b565b601482019150611462828461141f565b602082019150819050949350505050565b6000602082019050611488600083018461133c565b92915050565b60006040820190506114a3600083018561133c565b6114b0602083018461133c565b9392505050565b60006060820190506114cc600083018661133c565b6114d9602083018561133c565b6114e6604083018461133c565b949350505050565b600060e0820190506115036000830184611362565b92915050565b600060208201905061151e60008301846113b9565b92915050565b6000602082019050818103600083015261153e81846113c8565b905092915050565b600060208201905061155b6000830184611410565b92915050565b6000604051905081810181811067ffffffffffffffff82111715611588576115876118e6565b5b8060405250919050565b600067ffffffffffffffff8211156115ad576115ac6118e6565b5b601f19601f8301169050602081019050919050565b6000819050919050565b600060079050919050565b600081519050919050565b6000602082019050919050565b600081905092915050565b600082825260208201905092915050565b600061161682611721565b915061162183611721565b9250827fffffffffffffffffffffffffffffffffffffffffffffffffffffffffffffffff0382111561165657611655611859565b5b828201905092915050565b600061166c82611721565b915061167783611721565b9250817fffffffffffffffffffffffffffffffffffffffffffffffffffffffffffffffff04831182151516156116b0576116af611859565b5b828202905092915050565b60006116c682611721565b91506116d183611721565b9250828210156116e4576116e3611859565b5b828203905092915050565b60006116fa82611701565b9050919050565b600073ffffffffffffffffffffffffffffffffffffffff82169050919050565b6000819050919050565b600061173682611721565b9050919050565b82818337600083830152505050565b60005b8381101561176a57808201518184015260208101905061174f565b83811115611779576000848401525b50505050565b6000600282049050600182168061179757607f821691505b602082108114156117ab576117aa6118b7565b5b50919050565b60006117bc82611721565b91507fffffffffffffffffffffffffffffffffffffffffffffffffffffffffffffffff8214156117ef576117ee611859565b5b600182019050919050565b60006118058261180c565b9050919050565b600061181782611926565b9050919050565b6000819050919050565b600061183382611721565b915061183e83611721565b92508261184e5761184d611888565b5b828206905092915050565b7f4e487b7100000000000000000000000000000000000000000000000000000000600052601160045260246000fd5b7f4e487b7100000000000000000000000000000000000000000000000000000000600052601260045260246000fd5b7f4e487b7100000000000000000000000000000000000000000000000000000000600052602260045260246000fd5b7f4e487b7100000000000000000000000000000000000000000000000000000000600052604160045260246000fd5b6000601f19601f8301169050919050565b60008160601b9050919050565b61193c816116ef565b811461194757600080fd5b50565b61195381611721565b811461195e57600080fd5b5056fea2646970667358221220e53e22606025155639d761209e09096959a7dde5219dc75ca3e880c070d8cb4064736f6c63430008000033",
      "opcodes": "PUSH1 0x80 PUSH1 0x40 MSTORE PUSH1 0x7 PUSH1 0x1 SSTORE PUSH1 0x40 MLOAD DUP1 PUSH1 0x60 ADD PUSH1 0x40 MSTORE DUP1 PUSH1 0x1 PUSH1 0xFF AND DUP2 MSTORE PUSH1 0x20 ADD PUSH1 0x2 PUSH1 0xFF AND DUP2 MSTORE PUSH1 0x20 ADD PUSH1 0x3 PUSH1 0xFF AND DUP2 MSTORE POP PUSH1 0x2 SWAP1 PUSH1 0x3 PUSH3 0x42 SWAP3 SWAP2 SWAP1 PUSH3 0x61 JUMP JUMPDEST POP PUSH1 0x0 PUSH1 0x8 SSTORE PUSH1 0x0 PUSH1 0x9 SSTORE CALLVALUE DUP1 ISZERO PUSH3 0x5A JUMPI PUSH1 0x0 DUP1 REVERT JUMPDEST POP PUSH3 0xCA JUMP JUMPDEST DUP3 PUSH1 0x3 DUP2 ADD SWAP3 DUP3 ISZERO PUSH3 0x98 JUMPI SWAP2 PUSH1 0x20 MUL DUP3 ADD JUMPDEST DUP3 DUP2 GT ISZERO PUSH3 0x97 JUMPI DUP3 MLOAD DUP3 SWAP1 PUSH1 0xFF AND SWAP1 SSTORE SWAP2 PUSH1 0x20 ADD SWAP2 SWAP1 PUSH1 0x1 ADD SWAP1 PUSH3 0x75 JUMP JUMPDEST JUMPDEST POP SWAP1 POP PUSH3 0xA7 SWAP2 SWAP1 PUSH3 0xAB JUMP JUMPDEST POP SWAP1 JUMP JUMPDEST JUMPDEST DUP1 DUP3 GT ISZERO PUSH3 0xC6 JUMPI PUSH1 0x0 DUP2 PUSH1 0x0 SWAP1 SSTORE POP PUSH1 0x1 ADD PUSH3 0xAC JUMP JUMPDEST POP SWAP1 JUMP JUMPDEST PUSH2 0x1997 DUP1 PUSH3 0xDA PUSH1 0x0 CODECOPY PUSH1 0x0 RETURN INVALID PUSH1 0x80 PUSH1 0x40 MSTORE PUSH1 0x4 CALLDATASIZE LT PUSH2 0x91 JUMPI PUSH1 0x0 CALLDATALOAD PUSH1 0xE0 SHR DUP1 PUSH4 0x7D06CFDA GT PUSH2 0x59 JUMPI DUP1 PUSH4 0x7D06CFDA EQ PUSH2 0x172 JUMPI DUP1 PUSH4 0x9E7A13AD EQ PUSH2 0x1AF JUMPI DUP1 PUSH4 0xE2A04B62 EQ PUSH2 0x1EC JUMPI DUP1 PUSH4 0xEB6B3A33 EQ PUSH2 0x229 JUMPI DUP1 PUSH4 0xFC81312A EQ PUSH2 0x255 JUMPI PUSH2 0x91 JUMP JUMPDEST DUP1 PUSH4 0x36C8A4E1 EQ PUSH2 0x96 JUMPI DUP1 PUSH4 0x3738FC6B EQ PUSH2 0xD3 JUMPI DUP1 PUSH4 0x6132B3F7 EQ PUSH2 0xFE JUMPI DUP1 PUSH4 0x64D5756B EQ PUSH2 0x11A JUMPI DUP1 PUSH4 0x6B3C4CFF EQ PUSH2 0x147 JUMPI JUMPDEST PUSH1 0x0 DUP1 REVERT JUMPDEST CALLVALUE DUP1 ISZERO PUSH2 0xA2 JUMPI PUSH1 0x0 DUP1 REVERT JUMPDEST POP PUSH2 0xBD PUSH1 0x4 DUP1 CALLDATASIZE SUB DUP2 ADD SWAP1 PUSH2 0xB8 SWAP2 SWAP1 PUSH2 0x12FB JUMP JUMPDEST PUSH2 0x26C JUMP JUMPDEST PUSH1 0x40 MLOAD PUSH2 0xCA SWAP2 SWAP1 PUSH2 0x1524 JUMP JUMPDEST PUSH1 0x40 MLOAD DUP1 SWAP2 SUB SWAP1 RETURN JUMPDEST CALLVALUE DUP1 ISZERO PUSH2 0xDF JUMPI PUSH1 0x0 DUP1 REVERT JUMPDEST POP PUSH2 0xE8 PUSH2 0x30C JUMP JUMPDEST PUSH1 0x40 MLOAD PUSH2 0xF5 SWAP2 SWAP1 PUSH2 0x1473 JUMP JUMPDEST PUSH1 0x40 MLOAD DUP1 SWAP2 SUB SWAP1 RETURN JUMPDEST PUSH2 0x118 PUSH1 0x4 DUP1 CALLDATASIZE SUB DUP2 ADD SWAP1 PUSH2 0x113 SWAP2 SWAP1 PUSH2 0x12BA JUMP JUMPDEST PUSH2 0x429 JUMP JUMPDEST STOP JUMPDEST CALLVALUE DUP1 ISZERO PUSH2 0x126 JUMPI PUSH1 0x0 DUP1 REVERT JUMPDEST POP PUSH2 0x12F PUSH2 0x70D JUMP JUMPDEST PUSH1 0x40 MLOAD PUSH2 0x13E SWAP4 SWAP3 SWAP2 SWAP1 PUSH2 0x14B7 JUMP JUMPDEST PUSH1 0x40 MLOAD DUP1 SWAP2 SUB SWAP1 RETURN JUMPDEST CALLVALUE DUP1 ISZERO PUSH2 0x153 JUMPI PUSH1 0x0 DUP1 REVERT JUMPDEST POP PUSH2 0x15C PUSH2 0xA4D JUMP JUMPDEST PUSH1 0x40 MLOAD PUSH2 0x169 SWAP2 SWAP1 PUSH2 0x14EE JUMP JUMPDEST PUSH1 0x40 MLOAD DUP1 SWAP2 SUB SWAP1 RETURN JUMPDEST CALLVALUE DUP1 ISZERO PUSH2 0x17E JUMPI PUSH1 0x0 DUP1 REVERT JUMPDEST POP PUSH2 0x199 PUSH1 0x4 DUP1 CALLDATASIZE SUB DUP2 ADD SWAP1 PUSH2 0x194 SWAP2 SWAP1 PUSH2 0x12FB JUMP JUMPDEST PUSH2 0xB63 JUMP JUMPDEST PUSH1 0x40 MLOAD PUSH2 0x1A6 SWAP2 SWAP1 PUSH2 0x1473 JUMP JUMPDEST PUSH1 0x40 MLOAD DUP1 SWAP2 SUB SWAP1 RETURN JUMPDEST CALLVALUE DUP1 ISZERO PUSH2 0x1BB JUMPI PUSH1 0x0 DUP1 REVERT JUMPDEST POP PUSH2 0x1D6 PUSH1 0x4 DUP1 CALLDATASIZE SUB DUP2 ADD SWAP1 PUSH2 0x1D1 SWAP2 SWAP1 PUSH2 0x12FB JUMP JUMPDEST PUSH2 0xB96 JUMP JUMPDEST PUSH1 0x40 MLOAD PUSH2 0x1E3 SWAP2 SWAP1 PUSH2 0x1524 JUMP JUMPDEST PUSH1 0x40 MLOAD DUP1 SWAP2 SUB SWAP1 RETURN JUMPDEST CALLVALUE DUP1 ISZERO PUSH2 0x1F8 JUMPI PUSH1 0x0 DUP1 REVERT JUMPDEST POP PUSH2 0x213 PUSH1 0x4 DUP1 CALLDATASIZE SUB DUP2 ADD SWAP1 PUSH2 0x20E SWAP2 SWAP1 PUSH2 0x1291 JUMP JUMPDEST PUSH2 0xC48 JUMP JUMPDEST PUSH1 0x40 MLOAD PUSH2 0x220 SWAP2 SWAP1 PUSH2 0x1524 JUMP JUMPDEST PUSH1 0x40 MLOAD DUP1 SWAP2 SUB SWAP1 RETURN JUMPDEST CALLVALUE DUP1 ISZERO PUSH2 0x235 JUMPI PUSH1 0x0 DUP1 REVERT JUMPDEST POP PUSH2 0x23E PUSH2 0xCE8 JUMP JUMPDEST PUSH1 0x40 MLOAD PUSH2 0x24C SWAP3 SWAP2 SWAP1 PUSH2 0x148E JUMP JUMPDEST PUSH1 0x40 MLOAD DUP1 SWAP2 SUB SWAP1 RETURN JUMPDEST CALLVALUE DUP1 ISZERO PUSH2 0x261 JUMPI PUSH1 0x0 DUP1 REVERT JUMPDEST POP PUSH2 0x26A PUSH2 0xF16 JUMP JUMPDEST STOP JUMPDEST PUSH1 0x5 PUSH1 0x20 MSTORE DUP1 PUSH1 0x0 MSTORE PUSH1 0x40 PUSH1 0x0 KECCAK256 PUSH1 0x0 SWAP2 POP SWAP1 POP DUP1 SLOAD PUSH2 0x28B SWAP1 PUSH2 0x177F JUMP JUMPDEST DUP1 PUSH1 0x1F ADD PUSH1 0x20 DUP1 SWAP2 DIV MUL PUSH1 0x20 ADD PUSH1 0x40 MLOAD SWAP1 DUP2 ADD PUSH1 0x40 MSTORE DUP1 SWAP3 SWAP2 SWAP1 DUP2 DUP2 MSTORE PUSH1 0x20 ADD DUP3 DUP1 SLOAD PUSH2 0x2B7 SWAP1 PUSH2 0x177F JUMP JUMPDEST DUP1 ISZERO PUSH2 0x304 JUMPI DUP1 PUSH1 0x1F LT PUSH2 0x2D9 JUMPI PUSH2 0x100 DUP1 DUP4 SLOAD DIV MUL DUP4 MSTORE SWAP2 PUSH1 0x20 ADD SWAP2 PUSH2 0x304 JUMP JUMPDEST DUP3 ADD SWAP2 SWAP1 PUSH1 0x0 MSTORE PUSH1 0x20 PUSH1 0x0 KECCAK256 SWAP1 JUMPDEST DUP2 SLOAD DUP2 MSTORE SWAP1 PUSH1 0x1 ADD SWAP1 PUSH1 0x20 ADD DUP1 DUP4 GT PUSH2 0x2E7 JUMPI DUP3 SWAP1 SUB PUSH1 0x1F AND DUP3 ADD SWAP2 JUMPDEST POP POP POP POP POP DUP2 JUMP JUMPDEST PUSH1 0x0 PUSH2 0x316 PUSH2 0x1047 JUMP JUMPDEST PUSH1 0xA PUSH1 0x0 PUSH1 0x7 DUP2 LT PUSH2 0x351 JUMPI PUSH32 0x4E487B7100000000000000000000000000000000000000000000000000000000 PUSH1 0x0 MSTORE PUSH1 0x32 PUSH1 0x4 MSTORE PUSH1 0x24 PUSH1 0x0 REVERT JUMPDEST ADD PUSH1 0x0 SWAP1 SLOAD SWAP1 PUSH2 0x100 EXP SWAP1 DIV PUSH20 0xFFFFFFFFFFFFFFFFFFFFFFFFFFFFFFFFFFFFFFFF AND DUP2 PUSH1 0x0 PUSH1 0x1 DUP2 LT PUSH2 0x3AD JUMPI PUSH32 0x4E487B7100000000000000000000000000000000000000000000000000000000 PUSH1 0x0 MSTORE PUSH1 0x32 PUSH1 0x4 MSTORE PUSH1 0x24 PUSH1 0x0 REVERT JUMPDEST PUSH1 0x20 MUL ADD SWAP1 PUSH20 0xFFFFFFFFFFFFFFFFFFFFFFFFFFFFFFFFFFFFFFFF AND SWAP1 DUP2 PUSH20 0xFFFFFFFFFFFFFFFFFFFFFFFFFFFFFFFFFFFFFFFF AND DUP2 MSTORE POP POP DUP1 PUSH1 0x0 PUSH1 0x1 DUP2 LT PUSH2 0x41E JUMPI PUSH32 0x4E487B7100000000000000000000000000000000000000000000000000000000 PUSH1 0x0 MSTORE PUSH1 0x32 PUSH1 0x4 MSTORE PUSH1 0x24 PUSH1 0x0 REVERT JUMPDEST PUSH1 0x20 MUL ADD MLOAD SWAP2 POP POP SWAP1 JUMP JUMPDEST PUSH7 0x2386F26FC10000 CALLVALUE GT ISZERO PUSH2 0x498 JUMPI PUSH1 0x0 CALLER SWAP1 POP DUP1 PUSH20 0xFFFFFFFFFFFFFFFFFFFFFFFFFFFFFFFFFFFFFFFF AND PUSH2 0x8FC PUSH7 0x2386F26FC10000 CALLVALUE PUSH2 0x46A SWAP2 SWAP1 PUSH2 0x16BB JUMP JUMPDEST SWAP1 DUP2 ISZERO MUL SWAP1 PUSH1 0x40 MLOAD PUSH1 0x0 PUSH1 0x40 MLOAD DUP1 DUP4 SUB DUP2 DUP6 DUP9 DUP9 CALL SWAP4 POP POP POP POP ISZERO DUP1 ISZERO PUSH2 0x495 JUMPI RETURNDATASIZE PUSH1 0x0 DUP1 RETURNDATACOPY RETURNDATASIZE PUSH1 0x0 REVERT JUMPDEST POP POP JUMPDEST PUSH1 0x0 PUSH1 0x40 MLOAD DUP1 PUSH1 0x20 ADD PUSH1 0x40 MSTORE DUP1 DUP4 DUP2 MSTORE POP SWAP1 DUP1 PUSH1 0x1 DUP2 SLOAD ADD DUP1 DUP3 SSTORE DUP1 SWAP2 POP POP PUSH1 0x1 SWAP1 SUB SWAP1 PUSH1 0x0 MSTORE PUSH1 0x20 PUSH1 0x0 KECCAK256 ADD PUSH1 0x0 SWAP1 SWAP2 SWAP1 SWAP2 SWAP1 SWAP2 POP PUSH1 0x0 DUP3 ADD MLOAD DUP2 PUSH1 0x0 ADD SWAP1 DUP1 MLOAD SWAP1 PUSH1 0x20 ADD SWAP1 PUSH2 0x4EA SWAP3 SWAP2 SWAP1 PUSH2 0x1069 JUMP JUMPDEST POP POP POP PUSH1 0x1 PUSH1 0x0 DUP1 SLOAD SWAP1 POP PUSH2 0x4FF SWAP2 SWAP1 PUSH2 0x16BB JUMP JUMPDEST PUSH1 0x8 DUP2 SWAP1 SSTORE POP PUSH1 0x0 PUSH1 0x1 SWAP1 POP JUMPDEST PUSH1 0x1 PUSH1 0x8 SLOAD PUSH2 0x51B SWAP2 SWAP1 PUSH2 0x160B JUMP JUMPDEST DUP2 LT ISZERO PUSH2 0x577 JUMPI PUSH1 0x8 SLOAD PUSH1 0x18 DUP3 PUSH1 0x7 DUP2 LT PUSH2 0x55F JUMPI PUSH32 0x4E487B7100000000000000000000000000000000000000000000000000000000 PUSH1 0x0 MSTORE PUSH1 0x32 PUSH1 0x4 MSTORE PUSH1 0x24 PUSH1 0x0 REVERT JUMPDEST ADD DUP2 SWAP1 SSTORE POP DUP1 DUP1 PUSH2 0x56F SWAP1 PUSH2 0x17B1 JUMP JUMPDEST SWAP2 POP POP PUSH2 0x50C JUMP JUMPDEST POP CALLER PUSH1 0x6 PUSH1 0x0 PUSH1 0x8 SLOAD DUP2 MSTORE PUSH1 0x20 ADD SWAP1 DUP2 MSTORE PUSH1 0x20 ADD PUSH1 0x0 KECCAK256 PUSH1 0x0 PUSH2 0x100 EXP DUP2 SLOAD DUP2 PUSH20 0xFFFFFFFFFFFFFFFFFFFFFFFFFFFFFFFFFFFFFFFF MUL NOT AND SWAP1 DUP4 PUSH20 0xFFFFFFFFFFFFFFFFFFFFFFFFFFFFFFFFFFFFFFFF AND MUL OR SWAP1 SSTORE POP PUSH1 0x0 PUSH1 0x8 SLOAD DUP2 SLOAD DUP2 LT PUSH2 0x608 JUMPI PUSH32 0x4E487B7100000000000000000000000000000000000000000000000000000000 PUSH1 0x0 MSTORE PUSH1 0x32 PUSH1 0x4 MSTORE PUSH1 0x24 PUSH1 0x0 REVERT JUMPDEST SWAP1 PUSH1 0x0 MSTORE PUSH1 0x20 PUSH1 0x0 KECCAK256 ADD PUSH1 0x0 ADD PUSH1 0x7 PUSH1 0x0 CALLER PUSH20 0xFFFFFFFFFFFFFFFFFFFFFFFFFFFFFFFFFFFFFFFF AND PUSH20 0xFFFFFFFFFFFFFFFFFFFFFFFFFFFFFFFFFFFFFFFF AND DUP2 MSTORE PUSH1 0x20 ADD SWAP1 DUP2 MSTORE PUSH1 0x20 ADD PUSH1 0x0 KECCAK256 SWAP1 DUP1 SLOAD PUSH2 0x660 SWAP1 PUSH2 0x177F JUMP JUMPDEST PUSH2 0x66B SWAP3 SWAP2 SWAP1 PUSH2 0x10EF JUMP JUMPDEST POP PUSH1 0x8 PUSH1 0x0 DUP2 SLOAD DUP1 SWAP3 SWAP2 SWAP1 PUSH2 0x67F SWAP1 PUSH2 0x17B1 JUMP JUMPDEST SWAP2 SWAP1 POP SSTORE POP PUSH32 0xF7680AC9CCD6AAE030A017C63F21C417F13750F6860BAE8BB5D00C70817B460 PUSH1 0x8 SLOAD PUSH1 0x40 MLOAD PUSH2 0x6B5 SWAP2 SWAP1 PUSH2 0x1546 JUMP JUMPDEST PUSH1 0x40 MLOAD DUP1 SWAP2 SUB SWAP1 LOG1 PUSH1 0x5 PUSH1 0x8 SLOAD GT ISZERO PUSH2 0x70A JUMPI PUSH2 0x6D0 PUSH2 0xF16 JUMP JUMPDEST PUSH32 0xF7680AC9CCD6AAE030A017C63F21C417F13750F6860BAE8BB5D00C70817B460 PUSH2 0x7E5 PUSH1 0x40 MLOAD PUSH2 0x701 SWAP2 SWAP1 PUSH2 0x1509 JUMP JUMPDEST PUSH1 0x40 MLOAD DUP1 SWAP2 SUB SWAP1 LOG1 JUMPDEST POP JUMP JUMPDEST PUSH1 0x0 DUP1 PUSH1 0x0 PUSH2 0x71A PUSH2 0x117C JUMP JUMPDEST PUSH1 0xA PUSH1 0x3 PUSH1 0x7 DUP2 LT PUSH2 0x755 JUMPI PUSH32 0x4E487B7100000000000000000000000000000000000000000000000000000000 PUSH1 0x0 MSTORE PUSH1 0x32 PUSH1 0x4 MSTORE PUSH1 0x24 PUSH1 0x0 REVERT JUMPDEST ADD PUSH1 0x0 SWAP1 SLOAD SWAP1 PUSH2 0x100 EXP SWAP1 DIV PUSH20 0xFFFFFFFFFFFFFFFFFFFFFFFFFFFFFFFFFFFFFFFF AND DUP2 PUSH1 0x0 PUSH1 0x3 DUP2 LT PUSH2 0x7B1 JUMPI PUSH32 0x4E487B7100000000000000000000000000000000000000000000000000000000 PUSH1 0x0 MSTORE PUSH1 0x32 PUSH1 0x4 MSTORE PUSH1 0x24 PUSH1 0x0 REVERT JUMPDEST PUSH1 0x20 MUL ADD SWAP1 PUSH20 0xFFFFFFFFFFFFFFFFFFFFFFFFFFFFFFFFFFFFFFFF AND SWAP1 DUP2 PUSH20 0xFFFFFFFFFFFFFFFFFFFFFFFFFFFFFFFFFFFFFFFF AND DUP2 MSTORE POP POP PUSH1 0xA PUSH1 0x4 PUSH1 0x7 DUP2 LT PUSH2 0x823 JUMPI PUSH32 0x4E487B7100000000000000000000000000000000000000000000000000000000 PUSH1 0x0 MSTORE PUSH1 0x32 PUSH1 0x4 MSTORE PUSH1 0x24 PUSH1 0x0 REVERT JUMPDEST ADD PUSH1 0x0 SWAP1 SLOAD SWAP1 PUSH2 0x100 EXP SWAP1 DIV PUSH20 0xFFFFFFFFFFFFFFFFFFFFFFFFFFFFFFFFFFFFFFFF AND DUP2 PUSH1 0x1 PUSH1 0x3 DUP2 LT PUSH2 0x87F JUMPI PUSH32 0x4E487B7100000000000000000000000000000000000000000000000000000000 PUSH1 0x0 MSTORE PUSH1 0x32 PUSH1 0x4 MSTORE PUSH1 0x24 PUSH1 0x0 REVERT JUMPDEST PUSH1 0x20 MUL ADD SWAP1 PUSH20 0xFFFFFFFFFFFFFFFFFFFFFFFFFFFFFFFFFFFFFFFF AND SWAP1 DUP2 PUSH20 0xFFFFFFFFFFFFFFFFFFFFFFFFFFFFFFFFFFFFFFFF AND DUP2 MSTORE POP POP PUSH1 0xA PUSH1 0x5 PUSH1 0x7 DUP2 LT PUSH2 0x8F1 JUMPI PUSH32 0x4E487B7100000000000000000000000000000000000000000000000000000000 PUSH1 0x0 MSTORE PUSH1 0x32 PUSH1 0x4 MSTORE PUSH1 0x24 PUSH1 0x0 REVERT JUMPDEST ADD PUSH1 0x0 SWAP1 SLOAD SWAP1 PUSH2 0x100 EXP SWAP1 DIV PUSH20 0xFFFFFFFFFFFFFFFFFFFFFFFFFFFFFFFFFFFFFFFF AND DUP2 PUSH1 0x2 PUSH1 0x3 DUP2 LT PUSH2 0x94D JUMPI PUSH32 0x4E487B7100000000000000000000000000000000000000000000000000000000 PUSH1 0x0 MSTORE PUSH1 0x32 PUSH1 0x4 MSTORE PUSH1 0x24 PUSH1 0x0 REVERT JUMPDEST PUSH1 0x20 MUL ADD SWAP1 PUSH20 0xFFFFFFFFFFFFFFFFFFFFFFFFFFFFFFFFFFFFFFFF AND SWAP1 DUP2 PUSH20 0xFFFFFFFFFFFFFFFFFFFFFFFFFFFFFFFFFFFFFFFF AND DUP2 MSTORE POP POP DUP1 PUSH1 0x0 PUSH1 0x3 DUP2 LT PUSH2 0x9BE JUMPI PUSH32 0x4E487B7100000000000000000000000000000000000000000000000000000000 PUSH1 0x0 MSTORE PUSH1 0x32 PUSH1 0x4 MSTORE PUSH1 0x24 PUSH1 0x0 REVERT JUMPDEST PUSH1 0x20 MUL ADD MLOAD DUP2 PUSH1 0x1 PUSH1 0x3 DUP2 LT PUSH2 0x9FD JUMPI PUSH32 0x4E487B7100000000000000000000000000000000000000000000000000000000 PUSH1 0x0 MSTORE PUSH1 0x32 PUSH1 0x4 MSTORE PUSH1 0x24 PUSH1 0x0 REVERT JUMPDEST PUSH1 0x20 MUL ADD MLOAD DUP3 PUSH1 0x2 PUSH1 0x3 DUP2 LT PUSH2 0xA3C JUMPI PUSH32 0x4E487B7100000000000000000000000000000000000000000000000000000000 PUSH1 0x0 MSTORE PUSH1 0x32 PUSH1 0x4 MSTORE PUSH1 0x24 PUSH1 0x0 REVERT JUMPDEST PUSH1 0x20 MUL ADD MLOAD SWAP4 POP SWAP4 POP SWAP4 POP POP SWAP1 SWAP2 SWAP3 JUMP JUMPDEST PUSH2 0xA55 PUSH2 0x119E JUMP JUMPDEST PUSH1 0x0 JUMPDEST PUSH1 0x6 DUP2 LT ISZERO PUSH2 0xB1F JUMPI PUSH1 0x1 SLOAD DUP2 PUSH1 0x3 PUSH2 0xA71 SWAP2 SWAP1 PUSH2 0x1661 JUMP JUMPDEST TIMESTAMP PUSH2 0xA7C SWAP2 SWAP1 PUSH2 0x160B JUMP JUMPDEST CALLER PUSH1 0x9 SLOAD PUSH1 0x40 MLOAD PUSH1 0x20 ADD PUSH2 0xA92 SWAP4 SWAP3 SWAP2 SWAP1 PUSH2 0x1436 JUMP JUMPDEST PUSH1 0x40 MLOAD PUSH1 0x20 DUP2 DUP4 SUB SUB DUP2 MSTORE SWAP1 PUSH1 0x40 MSTORE DUP1 MLOAD SWAP1 PUSH1 0x20 ADD KECCAK256 PUSH1 0x0 SHR PUSH2 0xAB5 SWAP2 SWAP1 PUSH2 0x1828 JUMP JUMPDEST PUSH1 0x11 DUP3 PUSH1 0x7 DUP2 LT PUSH2 0xAEF JUMPI PUSH32 0x4E487B7100000000000000000000000000000000000000000000000000000000 PUSH1 0x0 MSTORE PUSH1 0x32 PUSH1 0x4 MSTORE PUSH1 0x24 PUSH1 0x0 REVERT JUMPDEST ADD DUP2 SWAP1 SSTORE POP PUSH1 0x9 PUSH1 0x0 DUP2 SLOAD DUP1 SWAP3 SWAP2 SWAP1 PUSH2 0xB07 SWAP1 PUSH2 0x17B1 JUMP JUMPDEST SWAP2 SWAP1 POP SSTORE POP DUP1 DUP1 PUSH2 0xB17 SWAP1 PUSH2 0x17B1 JUMP JUMPDEST SWAP2 POP POP PUSH2 0xA58 JUMP JUMPDEST POP PUSH1 0x11 PUSH1 0x7 DUP1 PUSH1 0x20 MUL PUSH1 0x40 MLOAD SWAP1 DUP2 ADD PUSH1 0x40 MSTORE DUP1 SWAP3 SWAP2 SWAP1 DUP3 PUSH1 0x7 DUP1 ISZERO PUSH2 0xB59 JUMPI PUSH1 0x20 MUL DUP3 ADD SWAP2 JUMPDEST DUP2 SLOAD DUP2 MSTORE PUSH1 0x20 ADD SWAP1 PUSH1 0x1 ADD SWAP1 DUP1 DUP4 GT PUSH2 0xB45 JUMPI JUMPDEST POP POP POP POP POP SWAP1 POP SWAP1 JUMP JUMPDEST PUSH1 0x6 PUSH1 0x20 MSTORE DUP1 PUSH1 0x0 MSTORE PUSH1 0x40 PUSH1 0x0 KECCAK256 PUSH1 0x0 SWAP2 POP SLOAD SWAP1 PUSH2 0x100 EXP SWAP1 DIV PUSH20 0xFFFFFFFFFFFFFFFFFFFFFFFFFFFFFFFFFFFFFFFF AND DUP2 JUMP JUMPDEST PUSH1 0x0 DUP2 DUP2 SLOAD DUP2 LT PUSH2 0xBA6 JUMPI PUSH1 0x0 DUP1 REVERT JUMPDEST SWAP1 PUSH1 0x0 MSTORE PUSH1 0x20 PUSH1 0x0 KECCAK256 ADD PUSH1 0x0 SWAP2 POP SWAP1 POP DUP1 PUSH1 0x0 ADD DUP1 SLOAD PUSH2 0xBC5 SWAP1 PUSH2 0x177F JUMP JUMPDEST DUP1 PUSH1 0x1F ADD PUSH1 0x20 DUP1 SWAP2 DIV MUL PUSH1 0x20 ADD PUSH1 0x40 MLOAD SWAP1 DUP2 ADD PUSH1 0x40 MSTORE DUP1 SWAP3 SWAP2 SWAP1 DUP2 DUP2 MSTORE PUSH1 0x20 ADD DUP3 DUP1 SLOAD PUSH2 0xBF1 SWAP1 PUSH2 0x177F JUMP JUMPDEST DUP1 ISZERO PUSH2 0xC3E JUMPI DUP1 PUSH1 0x1F LT PUSH2 0xC13 JUMPI PUSH2 0x100 DUP1 DUP4 SLOAD DIV MUL DUP4 MSTORE SWAP2 PUSH1 0x20 ADD SWAP2 PUSH2 0xC3E JUMP JUMPDEST DUP3 ADD SWAP2 SWAP1 PUSH1 0x0 MSTORE PUSH1 0x20 PUSH1 0x0 KECCAK256 SWAP1 JUMPDEST DUP2 SLOAD DUP2 MSTORE SWAP1 PUSH1 0x1 ADD SWAP1 PUSH1 0x20 ADD DUP1 DUP4 GT PUSH2 0xC21 JUMPI DUP3 SWAP1 SUB PUSH1 0x1F AND DUP3 ADD SWAP2 JUMPDEST POP POP POP POP POP SWAP1 POP DUP2 JUMP JUMPDEST PUSH1 0x7 PUSH1 0x20 MSTORE DUP1 PUSH1 0x0 MSTORE PUSH1 0x40 PUSH1 0x0 KECCAK256 PUSH1 0x0 SWAP2 POP SWAP1 POP DUP1 SLOAD PUSH2 0xC67 SWAP1 PUSH2 0x177F JUMP JUMPDEST DUP1 PUSH1 0x1F ADD PUSH1 0x20 DUP1 SWAP2 DIV MUL PUSH1 0x20 ADD PUSH1 0x40 MLOAD SWAP1 DUP2 ADD PUSH1 0x40 MSTORE DUP1 SWAP3 SWAP2 SWAP1 DUP2 DUP2 MSTORE PUSH1 0x20 ADD DUP3 DUP1 SLOAD PUSH2 0xC93 SWAP1 PUSH2 0x177F JUMP JUMPDEST DUP1 ISZERO PUSH2 0xCE0 JUMPI DUP1 PUSH1 0x1F LT PUSH2 0xCB5 JUMPI PUSH2 0x100 DUP1 DUP4 SLOAD DIV MUL DUP4 MSTORE SWAP2 PUSH1 0x20 ADD SWAP2 PUSH2 0xCE0 JUMP JUMPDEST DUP3 ADD SWAP2 SWAP1 PUSH1 0x0 MSTORE PUSH1 0x20 PUSH1 0x0 KECCAK256 SWAP1 JUMPDEST DUP2 SLOAD DUP2 MSTORE SWAP1 PUSH1 0x1 ADD SWAP1 PUSH1 0x20 ADD DUP1 DUP4 GT PUSH2 0xCC3 JUMPI DUP3 SWAP1 SUB PUSH1 0x1F AND DUP3 ADD SWAP2 JUMPDEST POP POP POP POP POP DUP2 JUMP JUMPDEST PUSH1 0x0 DUP1 PUSH2 0xCF3 PUSH2 0x11C0 JUMP JUMPDEST PUSH1 0xA PUSH1 0x1 PUSH1 0x7 DUP2 LT PUSH2 0xD2E JUMPI PUSH32 0x4E487B7100000000000000000000000000000000000000000000000000000000 PUSH1 0x0 MSTORE PUSH1 0x32 PUSH1 0x4 MSTORE PUSH1 0x24 PUSH1 0x0 REVERT JUMPDEST ADD PUSH1 0x0 SWAP1 SLOAD SWAP1 PUSH2 0x100 EXP SWAP1 DIV PUSH20 0xFFFFFFFFFFFFFFFFFFFFFFFFFFFFFFFFFFFFFFFF AND DUP2 PUSH1 0x0 PUSH1 0x2 DUP2 LT PUSH2 0xD8A JUMPI PUSH32 0x4E487B7100000000000000000000000000000000000000000000000000000000 PUSH1 0x0 MSTORE PUSH1 0x32 PUSH1 0x4 MSTORE PUSH1 0x24 PUSH1 0x0 REVERT JUMPDEST PUSH1 0x20 MUL ADD SWAP1 PUSH20 0xFFFFFFFFFFFFFFFFFFFFFFFFFFFFFFFFFFFFFFFF AND SWAP1 DUP2 PUSH20 0xFFFFFFFFFFFFFFFFFFFFFFFFFFFFFFFFFFFFFFFF AND DUP2 MSTORE POP POP PUSH1 0xA PUSH1 0x2 PUSH1 0x7 DUP2 LT PUSH2 0xDFC JUMPI PUSH32 0x4E487B7100000000000000000000000000000000000000000000000000000000 PUSH1 0x0 MSTORE PUSH1 0x32 PUSH1 0x4 MSTORE PUSH1 0x24 PUSH1 0x0 REVERT JUMPDEST ADD PUSH1 0x0 SWAP1 SLOAD SWAP1 PUSH2 0x100 EXP SWAP1 DIV PUSH20 0xFFFFFFFFFFFFFFFFFFFFFFFFFFFFFFFFFFFFFFFF AND DUP2 PUSH1 0x1 PUSH1 0x2 DUP2 LT PUSH2 0xE58 JUMPI PUSH32 0x4E487B7100000000000000000000000000000000000000000000000000000000 PUSH1 0x0 MSTORE PUSH1 0x32 PUSH1 0x4 MSTORE PUSH1 0x24 PUSH1 0x0 REVERT JUMPDEST PUSH1 0x20 MUL ADD SWAP1 PUSH20 0xFFFFFFFFFFFFFFFFFFFFFFFFFFFFFFFFFFFFFFFF AND SWAP1 DUP2 PUSH20 0xFFFFFFFFFFFFFFFFFFFFFFFFFFFFFFFFFFFFFFFF AND DUP2 MSTORE POP POP DUP1 PUSH1 0x0 PUSH1 0x2 DUP2 LT PUSH2 0xEC9 JUMPI PUSH32 0x4E487B7100000000000000000000000000000000000000000000000000000000 PUSH1 0x0 MSTORE PUSH1 0x32 PUSH1 0x4 MSTORE PUSH1 0x24 PUSH1 0x0 REVERT JUMPDEST PUSH1 0x20 MUL ADD MLOAD DUP2 PUSH1 0x1 PUSH1 0x2 DUP2 LT PUSH2 0xF08 JUMPI PUSH32 0x4E487B7100000000000000000000000000000000000000000000000000000000 PUSH1 0x0 MSTORE PUSH1 0x32 PUSH1 0x4 MSTORE PUSH1 0x24 PUSH1 0x0 REVERT JUMPDEST PUSH1 0x20 MUL ADD MLOAD SWAP3 POP SWAP3 POP POP SWAP1 SWAP2 JUMP JUMPDEST PUSH2 0xF1E PUSH2 0xA4D JUMP JUMPDEST POP PUSH1 0x0 JUMPDEST PUSH1 0x6 DUP2 LT ISZERO PUSH2 0x1026 JUMPI PUSH1 0x6 PUSH1 0x0 PUSH1 0x11 DUP4 PUSH1 0x7 DUP2 LT PUSH2 0xF69 JUMPI PUSH32 0x4E487B7100000000000000000000000000000000000000000000000000000000 PUSH1 0x0 MSTORE PUSH1 0x32 PUSH1 0x4 MSTORE PUSH1 0x24 PUSH1 0x0 REVERT JUMPDEST ADD SLOAD DUP2 MSTORE PUSH1 0x20 ADD SWAP1 DUP2 MSTORE PUSH1 0x20 ADD PUSH1 0x0 KECCAK256 PUSH1 0x0 SWAP1 SLOAD SWAP1 PUSH2 0x100 EXP SWAP1 DIV PUSH20 0xFFFFFFFFFFFFFFFFFFFFFFFFFFFFFFFFFFFFFFFF AND PUSH1 0xA DUP3 PUSH1 0x7 DUP2 LT PUSH2 0xFD4 JUMPI PUSH32 0x4E487B7100000000000000000000000000000000000000000000000000000000 PUSH1 0x0 MSTORE PUSH1 0x32 PUSH1 0x4 MSTORE PUSH1 0x24 PUSH1 0x0 REVERT JUMPDEST ADD PUSH1 0x0 PUSH2 0x100 EXP DUP2 SLOAD DUP2 PUSH20 0xFFFFFFFFFFFFFFFFFFFFFFFFFFFFFFFFFFFFFFFF MUL NOT AND SWAP1 DUP4 PUSH20 0xFFFFFFFFFFFFFFFFFFFFFFFFFFFFFFFFFFFFFFFF AND MUL OR SWAP1 SSTORE POP DUP1 DUP1 PUSH2 0x101E SWAP1 PUSH2 0x17B1 JUMP JUMPDEST SWAP2 POP POP PUSH2 0xF22 JUMP JUMPDEST POP PUSH2 0x102F PUSH2 0x30C JUMP JUMPDEST POP PUSH2 0x1038 PUSH2 0xCE8 JUMP JUMPDEST POP POP PUSH2 0x1042 PUSH2 0x70D JUMP JUMPDEST POP POP POP JUMP JUMPDEST PUSH1 0x40 MLOAD DUP1 PUSH1 0x20 ADD PUSH1 0x40 MSTORE DUP1 PUSH1 0x1 SWAP1 PUSH1 0x20 DUP3 MUL DUP1 CALLDATASIZE DUP4 CALLDATACOPY DUP1 DUP3 ADD SWAP2 POP POP SWAP1 POP POP SWAP1 JUMP JUMPDEST DUP3 DUP1 SLOAD PUSH2 0x1075 SWAP1 PUSH2 0x177F JUMP JUMPDEST SWAP1 PUSH1 0x0 MSTORE PUSH1 0x20 PUSH1 0x0 KECCAK256 SWAP1 PUSH1 0x1F ADD PUSH1 0x20 SWAP1 DIV DUP2 ADD SWAP3 DUP3 PUSH2 0x1097 JUMPI PUSH1 0x0 DUP6 SSTORE PUSH2 0x10DE JUMP JUMPDEST DUP3 PUSH1 0x1F LT PUSH2 0x10B0 JUMPI DUP1 MLOAD PUSH1 0xFF NOT AND DUP4 DUP1 ADD OR DUP6 SSTORE PUSH2 0x10DE JUMP JUMPDEST DUP3 DUP1 ADD PUSH1 0x1 ADD DUP6 SSTORE DUP3 ISZERO PUSH2 0x10DE JUMPI SWAP2 DUP3 ADD JUMPDEST DUP3 DUP2 GT ISZERO PUSH2 0x10DD JUMPI DUP3 MLOAD DUP3 SSTORE SWAP2 PUSH1 0x20 ADD SWAP2 SWAP1 PUSH1 0x1 ADD SWAP1 PUSH2 0x10C2 JUMP JUMPDEST JUMPDEST POP SWAP1 POP PUSH2 0x10EB SWAP2 SWAP1 PUSH2 0x11E2 JUMP JUMPDEST POP SWAP1 JUMP JUMPDEST DUP3 DUP1 SLOAD PUSH2 0x10FB SWAP1 PUSH2 0x177F JUMP JUMPDEST SWAP1 PUSH1 0x0 MSTORE PUSH1 0x20 PUSH1 0x0 KECCAK256 SWAP1 PUSH1 0x1F ADD PUSH1 0x20 SWAP1 DIV DUP2 ADD SWAP3 DUP3 PUSH2 0x111D JUMPI PUSH1 0x0 DUP6 SSTORE PUSH2 0x116B JUMP JUMPDEST DUP3 PUSH1 0x1F LT PUSH2 0x112E JUMPI DUP1 SLOAD DUP6 SSTORE PUSH2 0x116B JUMP JUMPDEST DUP3 DUP1 ADD PUSH1 0x1 ADD DUP6 SSTORE DUP3 ISZERO PUSH2 0x116B JUMPI PUSH1 0x0 MSTORE PUSH1 0x20 PUSH1 0x0 KECCAK256 SWAP2 PUSH1 0x1F ADD PUSH1 0x20 SWAP1 DIV DUP3 ADD JUMPDEST DUP3 DUP2 GT ISZERO PUSH2 0x116A JUMPI DUP3 SLOAD DUP3 SSTORE SWAP2 PUSH1 0x1 ADD SWAP2 SWAP1 PUSH1 0x1 ADD SWAP1 PUSH2 0x114F JUMP JUMPDEST JUMPDEST POP SWAP1 POP PUSH2 0x1178 SWAP2 SWAP1 PUSH2 0x11E2 JUMP JUMPDEST POP SWAP1 JUMP JUMPDEST PUSH1 0x40 MLOAD DUP1 PUSH1 0x60 ADD PUSH1 0x40 MSTORE DUP1 PUSH1 0x3 SWAP1 PUSH1 0x20 DUP3 MUL DUP1 CALLDATASIZE DUP4 CALLDATACOPY DUP1 DUP3 ADD SWAP2 POP POP SWAP1 POP POP SWAP1 JUMP JUMPDEST PUSH1 0x40 MLOAD DUP1 PUSH1 0xE0 ADD PUSH1 0x40 MSTORE DUP1 PUSH1 0x7 SWAP1 PUSH1 0x20 DUP3 MUL DUP1 CALLDATASIZE DUP4 CALLDATACOPY DUP1 DUP3 ADD SWAP2 POP POP SWAP1 POP POP SWAP1 JUMP JUMPDEST PUSH1 0x40 MLOAD DUP1 PUSH1 0x40 ADD PUSH1 0x40 MSTORE DUP1 PUSH1 0x2 SWAP1 PUSH1 0x20 DUP3 MUL DUP1 CALLDATASIZE DUP4 CALLDATACOPY DUP1 DUP3 ADD SWAP2 POP POP SWAP1 POP POP SWAP1 JUMP JUMPDEST JUMPDEST DUP1 DUP3 GT ISZERO PUSH2 0x11FB JUMPI PUSH1 0x0 DUP2 PUSH1 0x0 SWAP1 SSTORE POP PUSH1 0x1 ADD PUSH2 0x11E3 JUMP JUMPDEST POP SWAP1 JUMP JUMPDEST PUSH1 0x0 PUSH2 0x1212 PUSH2 0x120D DUP5 PUSH2 0x1592 JUMP JUMPDEST PUSH2 0x1561 JUMP JUMPDEST SWAP1 POP DUP3 DUP2 MSTORE PUSH1 0x20 DUP2 ADD DUP5 DUP5 DUP5 ADD GT ISZERO PUSH2 0x122A JUMPI PUSH1 0x0 DUP1 REVERT JUMPDEST PUSH2 0x1235 DUP5 DUP3 DUP6 PUSH2 0x173D JUMP JUMPDEST POP SWAP4 SWAP3 POP POP POP JUMP JUMPDEST PUSH1 0x0 DUP2 CALLDATALOAD SWAP1 POP PUSH2 0x124C DUP2 PUSH2 0x1933 JUMP JUMPDEST SWAP3 SWAP2 POP POP JUMP JUMPDEST PUSH1 0x0 DUP3 PUSH1 0x1F DUP4 ADD SLT PUSH2 0x1263 JUMPI PUSH1 0x0 DUP1 REVERT JUMPDEST DUP2 CALLDATALOAD PUSH2 0x1273 DUP5 DUP3 PUSH1 0x20 DUP7 ADD PUSH2 0x11FF JUMP JUMPDEST SWAP2 POP POP SWAP3 SWAP2 POP POP JUMP JUMPDEST PUSH1 0x0 DUP2 CALLDATALOAD SWAP1 POP PUSH2 0x128B DUP2 PUSH2 0x194A JUMP JUMPDEST SWAP3 SWAP2 POP POP JUMP JUMPDEST PUSH1 0x0 PUSH1 0x20 DUP3 DUP5 SUB SLT ISZERO PUSH2 0x12A3 JUMPI PUSH1 0x0 DUP1 REVERT JUMPDEST PUSH1 0x0 PUSH2 0x12B1 DUP5 DUP3 DUP6 ADD PUSH2 0x123D JUMP JUMPDEST SWAP2 POP POP SWAP3 SWAP2 POP POP JUMP JUMPDEST PUSH1 0x0 PUSH1 0x20 DUP3 DUP5 SUB SLT ISZERO PUSH2 0x12CC JUMPI PUSH1 0x0 DUP1 REVERT JUMPDEST PUSH1 0x0 DUP3 ADD CALLDATALOAD PUSH8 0xFFFFFFFFFFFFFFFF DUP2 GT ISZERO PUSH2 0x12E6 JUMPI PUSH1 0x0 DUP1 REVERT JUMPDEST PUSH2 0x12F2 DUP5 DUP3 DUP6 ADD PUSH2 0x1252 JUMP JUMPDEST SWAP2 POP POP SWAP3 SWAP2 POP POP JUMP JUMPDEST PUSH1 0x0 PUSH1 0x20 DUP3 DUP5 SUB SLT ISZERO PUSH2 0x130D JUMPI PUSH1 0x0 DUP1 REVERT JUMPDEST PUSH1 0x0 PUSH2 0x131B DUP5 DUP3 DUP6 ADD PUSH2 0x127C JUMP JUMPDEST SWAP2 POP POP SWAP3 SWAP2 POP POP JUMP JUMPDEST PUSH1 0x0 PUSH2 0x1330 DUP4 DUP4 PUSH2 0x1401 JUMP JUMPDEST PUSH1 0x20 DUP4 ADD SWAP1 POP SWAP3 SWAP2 POP POP JUMP JUMPDEST PUSH2 0x1345 DUP2 PUSH2 0x16EF JUMP JUMPDEST DUP3 MSTORE POP POP JUMP JUMPDEST PUSH2 0x135C PUSH2 0x1357 DUP3 PUSH2 0x16EF JUMP JUMPDEST PUSH2 0x17FA JUMP JUMPDEST DUP3 MSTORE POP POP JUMP JUMPDEST PUSH2 0x136B DUP2 PUSH2 0x15CC JUMP JUMPDEST PUSH2 0x1375 DUP2 DUP5 PUSH2 0x15EF JUMP JUMPDEST SWAP3 POP PUSH2 0x1380 DUP3 PUSH2 0x15C2 JUMP JUMPDEST DUP1 PUSH1 0x0 JUMPDEST DUP4 DUP2 LT ISZERO PUSH2 0x13B1 JUMPI DUP2 MLOAD PUSH2 0x1398 DUP8 DUP3 PUSH2 0x1324 JUMP JUMPDEST SWAP7 POP PUSH2 0x13A3 DUP4 PUSH2 0x15E2 JUMP JUMPDEST SWAP3 POP POP PUSH1 0x1 DUP2 ADD SWAP1 POP PUSH2 0x1384 JUMP JUMPDEST POP POP POP POP POP POP JUMP JUMPDEST PUSH2 0x13C2 DUP2 PUSH2 0x172B JUMP JUMPDEST DUP3 MSTORE POP POP JUMP JUMPDEST PUSH1 0x0 PUSH2 0x13D3 DUP3 PUSH2 0x15D7 JUMP JUMPDEST PUSH2 0x13DD DUP2 DUP6 PUSH2 0x15FA JUMP JUMPDEST SWAP4 POP PUSH2 0x13ED DUP2 DUP6 PUSH1 0x20 DUP7 ADD PUSH2 0x174C JUMP JUMPDEST PUSH2 0x13F6 DUP2 PUSH2 0x1915 JUMP JUMPDEST DUP5 ADD SWAP2 POP POP SWAP3 SWAP2 POP POP JUMP JUMPDEST PUSH2 0x140A DUP2 PUSH2 0x1721 JUMP JUMPDEST DUP3 MSTORE POP POP JUMP JUMPDEST PUSH2 0x1419 DUP2 PUSH2 0x1721 JUMP JUMPDEST DUP3 MSTORE POP POP JUMP JUMPDEST PUSH2 0x1430 PUSH2 0x142B DUP3 PUSH2 0x1721 JUMP JUMPDEST PUSH2 0x181E JUMP JUMPDEST DUP3 MSTORE POP POP JUMP JUMPDEST PUSH1 0x0 PUSH2 0x1442 DUP3 DUP7 PUSH2 0x141F JUMP JUMPDEST PUSH1 0x20 DUP3 ADD SWAP2 POP PUSH2 0x1452 DUP3 DUP6 PUSH2 0x134B JUMP JUMPDEST PUSH1 0x14 DUP3 ADD SWAP2 POP PUSH2 0x1462 DUP3 DUP5 PUSH2 0x141F JUMP JUMPDEST PUSH1 0x20 DUP3 ADD SWAP2 POP DUP2 SWAP1 POP SWAP5 SWAP4 POP POP POP POP JUMP JUMPDEST PUSH1 0x0 PUSH1 0x20 DUP3 ADD SWAP1 POP PUSH2 0x1488 PUSH1 0x0 DUP4 ADD DUP5 PUSH2 0x133C JUMP JUMPDEST SWAP3 SWAP2 POP POP JUMP JUMPDEST PUSH1 0x0 PUSH1 0x40 DUP3 ADD SWAP1 POP PUSH2 0x14A3 PUSH1 0x0 DUP4 ADD DUP6 PUSH2 0x133C JUMP JUMPDEST PUSH2 0x14B0 PUSH1 0x20 DUP4 ADD DUP5 PUSH2 0x133C JUMP JUMPDEST SWAP4 SWAP3 POP POP POP JUMP JUMPDEST PUSH1 0x0 PUSH1 0x60 DUP3 ADD SWAP1 POP PUSH2 0x14CC PUSH1 0x0 DUP4 ADD DUP7 PUSH2 0x133C JUMP JUMPDEST PUSH2 0x14D9 PUSH1 0x20 DUP4 ADD DUP6 PUSH2 0x133C JUMP JUMPDEST PUSH2 0x14E6 PUSH1 0x40 DUP4 ADD DUP5 PUSH2 0x133C JUMP JUMPDEST SWAP5 SWAP4 POP POP POP POP JUMP JUMPDEST PUSH1 0x0 PUSH1 0xE0 DUP3 ADD SWAP1 POP PUSH2 0x1503 PUSH1 0x0 DUP4 ADD DUP5 PUSH2 0x1362 JUMP JUMPDEST SWAP3 SWAP2 POP POP JUMP JUMPDEST PUSH1 0x0 PUSH1 0x20 DUP3 ADD SWAP1 POP PUSH2 0x151E PUSH1 0x0 DUP4 ADD DUP5 PUSH2 0x13B9 JUMP JUMPDEST SWAP3 SWAP2 POP POP JUMP JUMPDEST PUSH1 0x0 PUSH1 0x20 DUP3 ADD SWAP1 POP DUP2 DUP2 SUB PUSH1 0x0 DUP4 ADD MSTORE PUSH2 0x153E DUP2 DUP5 PUSH2 0x13C8 JUMP JUMPDEST SWAP1 POP SWAP3 SWAP2 POP POP JUMP JUMPDEST PUSH1 0x0 PUSH1 0x20 DUP3 ADD SWAP1 POP PUSH2 0x155B PUSH1 0x0 DUP4 ADD DUP5 PUSH2 0x1410 JUMP JUMPDEST SWAP3 SWAP2 POP POP JUMP JUMPDEST PUSH1 0x0 PUSH1 0x40 MLOAD SWAP1 POP DUP2 DUP2 ADD DUP2 DUP2 LT PUSH8 0xFFFFFFFFFFFFFFFF DUP3 GT OR ISZERO PUSH2 0x1588 JUMPI PUSH2 0x1587 PUSH2 0x18E6 JUMP JUMPDEST JUMPDEST DUP1 PUSH1 0x40 MSTORE POP SWAP2 SWAP1 POP JUMP JUMPDEST PUSH1 0x0 PUSH8 0xFFFFFFFFFFFFFFFF DUP3 GT ISZERO PUSH2 0x15AD JUMPI PUSH2 0x15AC PUSH2 0x18E6 JUMP JUMPDEST JUMPDEST PUSH1 0x1F NOT PUSH1 0x1F DUP4 ADD AND SWAP1 POP PUSH1 0x20 DUP2 ADD SWAP1 POP SWAP2 SWAP1 POP JUMP JUMPDEST PUSH1 0x0 DUP2 SWAP1 POP SWAP2 SWAP1 POP JUMP JUMPDEST PUSH1 0x0 PUSH1 0x7 SWAP1 POP SWAP2 SWAP1 POP JUMP JUMPDEST PUSH1 0x0 DUP2 MLOAD SWAP1 POP SWAP2 SWAP1 POP JUMP JUMPDEST PUSH1 0x0 PUSH1 0x20 DUP3 ADD SWAP1 POP SWAP2 SWAP1 POP JUMP JUMPDEST PUSH1 0x0 DUP2 SWAP1 POP SWAP3 SWAP2 POP POP JUMP JUMPDEST PUSH1 0x0 DUP3 DUP3 MSTORE PUSH1 0x20 DUP3 ADD SWAP1 POP SWAP3 SWAP2 POP POP JUMP JUMPDEST PUSH1 0x0 PUSH2 0x1616 DUP3 PUSH2 0x1721 JUMP JUMPDEST SWAP2 POP PUSH2 0x1621 DUP4 PUSH2 0x1721 JUMP JUMPDEST SWAP3 POP DUP3 PUSH32 0xFFFFFFFFFFFFFFFFFFFFFFFFFFFFFFFFFFFFFFFFFFFFFFFFFFFFFFFFFFFFFFFF SUB DUP3 GT ISZERO PUSH2 0x1656 JUMPI PUSH2 0x1655 PUSH2 0x1859 JUMP JUMPDEST JUMPDEST DUP3 DUP3 ADD SWAP1 POP SWAP3 SWAP2 POP POP JUMP JUMPDEST PUSH1 0x0 PUSH2 0x166C DUP3 PUSH2 0x1721 JUMP JUMPDEST SWAP2 POP PUSH2 0x1677 DUP4 PUSH2 0x1721 JUMP JUMPDEST SWAP3 POP DUP2 PUSH32 0xFFFFFFFFFFFFFFFFFFFFFFFFFFFFFFFFFFFFFFFFFFFFFFFFFFFFFFFFFFFFFFFF DIV DUP4 GT DUP3 ISZERO ISZERO AND ISZERO PUSH2 0x16B0 JUMPI PUSH2 0x16AF PUSH2 0x1859 JUMP JUMPDEST JUMPDEST DUP3 DUP3 MUL SWAP1 POP SWAP3 SWAP2 POP POP JUMP JUMPDEST PUSH1 0x0 PUSH2 0x16C6 DUP3 PUSH2 0x1721 JUMP JUMPDEST SWAP2 POP PUSH2 0x16D1 DUP4 PUSH2 0x1721 JUMP JUMPDEST SWAP3 POP DUP3 DUP3 LT ISZERO PUSH2 0x16E4 JUMPI PUSH2 0x16E3 PUSH2 0x1859 JUMP JUMPDEST JUMPDEST DUP3 DUP3 SUB SWAP1 POP SWAP3 SWAP2 POP POP JUMP JUMPDEST PUSH1 0x0 PUSH2 0x16FA DUP3 PUSH2 0x1701 JUMP JUMPDEST SWAP1 POP SWAP2 SWAP1 POP JUMP JUMPDEST PUSH1 0x0 PUSH20 0xFFFFFFFFFFFFFFFFFFFFFFFFFFFFFFFFFFFFFFFF DUP3 AND SWAP1 POP SWAP2 SWAP1 POP JUMP JUMPDEST PUSH1 0x0 DUP2 SWAP1 POP SWAP2 SWAP1 POP JUMP JUMPDEST PUSH1 0x0 PUSH2 0x1736 DUP3 PUSH2 0x1721 JUMP JUMPDEST SWAP1 POP SWAP2 SWAP1 POP JUMP JUMPDEST DUP3 DUP2 DUP4 CALLDATACOPY PUSH1 0x0 DUP4 DUP4 ADD MSTORE POP POP POP JUMP JUMPDEST PUSH1 0x0 JUMPDEST DUP4 DUP2 LT ISZERO PUSH2 0x176A JUMPI DUP1 DUP3 ADD MLOAD DUP2 DUP5 ADD MSTORE PUSH1 0x20 DUP2 ADD SWAP1 POP PUSH2 0x174F JUMP JUMPDEST DUP4 DUP2 GT ISZERO PUSH2 0x1779 JUMPI PUSH1 0x0 DUP5 DUP5 ADD MSTORE JUMPDEST POP POP POP POP JUMP JUMPDEST PUSH1 0x0 PUSH1 0x2 DUP3 DIV SWAP1 POP PUSH1 0x1 DUP3 AND DUP1 PUSH2 0x1797 JUMPI PUSH1 0x7F DUP3 AND SWAP2 POP JUMPDEST PUSH1 0x20 DUP3 LT DUP2 EQ ISZERO PUSH2 0x17AB JUMPI PUSH2 0x17AA PUSH2 0x18B7 JUMP JUMPDEST JUMPDEST POP SWAP2 SWAP1 POP JUMP JUMPDEST PUSH1 0x0 PUSH2 0x17BC DUP3 PUSH2 0x1721 JUMP JUMPDEST SWAP2 POP PUSH32 0xFFFFFFFFFFFFFFFFFFFFFFFFFFFFFFFFFFFFFFFFFFFFFFFFFFFFFFFFFFFFFFFF DUP3 EQ ISZERO PUSH2 0x17EF JUMPI PUSH2 0x17EE PUSH2 0x1859 JUMP JUMPDEST JUMPDEST PUSH1 0x1 DUP3 ADD SWAP1 POP SWAP2 SWAP1 POP JUMP JUMPDEST PUSH1 0x0 PUSH2 0x1805 DUP3 PUSH2 0x180C JUMP JUMPDEST SWAP1 POP SWAP2 SWAP1 POP JUMP JUMPDEST PUSH1 0x0 PUSH2 0x1817 DUP3 PUSH2 0x1926 JUMP JUMPDEST SWAP1 POP SWAP2 SWAP1 POP JUMP JUMPDEST PUSH1 0x0 DUP2 SWAP1 POP SWAP2 SWAP1 POP JUMP JUMPDEST PUSH1 0x0 PUSH2 0x1833 DUP3 PUSH2 0x1721 JUMP JUMPDEST SWAP2 POP PUSH2 0x183E DUP4 PUSH2 0x1721 JUMP JUMPDEST SWAP3 POP DUP3 PUSH2 0x184E JUMPI PUSH2 0x184D PUSH2 0x1888 JUMP JUMPDEST JUMPDEST DUP3 DUP3 MOD SWAP1 POP SWAP3 SWAP2 POP POP JUMP JUMPDEST PUSH32 0x4E487B7100000000000000000000000000000000000000000000000000000000 PUSH1 0x0 MSTORE PUSH1 0x11 PUSH1 0x4 MSTORE PUSH1 0x24 PUSH1 0x0 REVERT JUMPDEST PUSH32 0x4E487B7100000000000000000000000000000000000000000000000000000000 PUSH1 0x0 MSTORE PUSH1 0x12 PUSH1 0x4 MSTORE PUSH1 0x24 PUSH1 0x0 REVERT JUMPDEST PUSH32 0x4E487B7100000000000000000000000000000000000000000000000000000000 PUSH1 0x0 MSTORE PUSH1 0x22 PUSH1 0x4 MSTORE PUSH1 0x24 PUSH1 0x0 REVERT JUMPDEST PUSH32 0x4E487B7100000000000000000000000000000000000000000000000000000000 PUSH1 0x0 MSTORE PUSH1 0x41 PUSH1 0x4 MSTORE PUSH1 0x24 PUSH1 0x0 REVERT JUMPDEST PUSH1 0x0 PUSH1 0x1F NOT PUSH1 0x1F DUP4 ADD AND SWAP1 POP SWAP2 SWAP1 POP JUMP JUMPDEST PUSH1 0x0 DUP2 PUSH1 0x60 SHL SWAP1 POP SWAP2 SWAP1 POP JUMP JUMPDEST PUSH2 0x193C DUP2 PUSH2 0x16EF JUMP JUMPDEST DUP2 EQ PUSH2 0x1947 JUMPI PUSH1 0x0 DUP1 REVERT JUMPDEST POP JUMP JUMPDEST PUSH2 0x1953 DUP2 PUSH2 0x1721 JUMP JUMPDEST DUP2 EQ PUSH2 0x195E JUMPI PUSH1 0x0 DUP1 REVERT JUMPDEST POP JUMP INVALID LOG2 PUSH5 0x6970667358 0x22 SLT KECCAK256 0xE5 RETURNDATACOPY 0x22 PUSH1 0x60 0x25 ISZERO JUMP CODECOPY 0xD7 PUSH2 0x209E MULMOD MULMOD PUSH10 0x59A7DDE5219DC75CA3E8 DUP1 0xC0 PUSH17 0xD8CB4064736F6C63430008000033000000 "
    },
    "gasEstimates": {
      "creation": {
        "codeDepositCost": "1310200",
        "executionCost": "infinite",
        "totalCost": "infinite"
      },
      "external": {
        "_produceFirstPrize()": "infinite",
        "_producePrize()": "infinite",
        "_produceSecondPrize()": "infinite",
        "_produceThirdPrize()": "infinite",
        "_winnerNumber()": "infinite",
        "addressToName(address)": "infinite",
        "countToPeople(uint256)": "1539",
        "levelToName(uint256)": "infinite",
        "people(uint256)": "infinite",
        "rigister(string)": "infinite"
      }
    },
    "methodIdentifiers": {
      "_produceFirstPrize()": "3738fc6b",
      "_producePrize()": "fc81312a",
      "_produceSecondPrize()": "eb6b3a33",
      "_produceThirdPrize()": "64d5756b",
      "_winnerNumber()": "6b3c4cff",
      "addressToName(address)": "e2a04b62",
      "countToPeople(uint256)": "7d06cfda",
      "levelToName(uint256)": "36c8a4e1",
      "people(uint256)": "9e7a13ad",
      "rigister(string)": "6132b3f7"
    }
  },
  "storageLayout": {
    "storage": [
      {
        "astId": 8,
        "contract": "./contracts/Main.sol:raffle",
        "label": "people",
        "offset": 0,
        "slot": "0",
        "type": "t_array(t_struct(People)4_storage)dyn_storage"
      },
      {
        "astId": 11,
        "contract": "./contracts/Main.sol:raffle",
        "label": "modulus",
        "offset": 0,
        "slot": "1",
        "type": "t_uint256"
      },
      {
        "astId": 19,
        "contract": "./contracts/Main.sol:raffle",
        "label": "level",
        "offset": 0,
        "slot": "2",
        "type": "t_array(t_uint256)3_storage"
      },
      {
        "astId": 23,
        "contract": "./contracts/Main.sol:raffle",
        "label": "levelToName",
        "offset": 0,
        "slot": "5",
        "type": "t_mapping(t_uint256,t_string_storage)"
      },
      {
        "astId": 27,
        "contract": "./contracts/Main.sol:raffle",
        "label": "countToPeople",
        "offset": 0,
        "slot": "6",
        "type": "t_mapping(t_uint256,t_address)"
      },
      {
        "astId": 31,
        "contract": "./contracts/Main.sol:raffle",
        "label": "addressToName",
        "offset": 0,
        "slot": "7",
        "type": "t_mapping(t_address,t_string_storage)"
      },
      {
        "astId": 34,
        "contract": "./contracts/Main.sol:raffle",
        "label": "count",
        "offset": 0,
        "slot": "8",
        "type": "t_uint256"
      },
      {
        "astId": 37,
        "contract": "./contracts/Main.sol:raffle",
        "label": "nonce",
        "offset": 0,
        "slot": "9",
        "type": "t_uint256"
      },
      {
        "astId": 41,
        "contract": "./contracts/Main.sol:raffle",
        "label": "prizeWinnerAddress",
        "offset": 0,
        "slot": "10",
        "type": "t_array(t_address)7_storage"
      },
      {
        "astId": 45,
        "contract": "./contracts/Main.sol:raffle",
        "label": "winnerNumber",
        "offset": 0,
        "slot": "17",
        "type": "t_array(t_uint256)7_storage"
      },
      {
        "astId": 49,
        "contract": "./contracts/Main.sol:raffle",
        "label": "countString",
        "offset": 0,
        "slot": "24",
        "type": "t_array(t_uint256)7_storage"
      },
      {
        "astId": 53,
        "contract": "./contracts/Main.sol:raffle",
        "label": "nameString",
        "offset": 0,
        "slot": "31",
        "type": "t_array(t_string_storage)7_storage"
      }
    ],
    "types": {
      "t_address": {
        "encoding": "inplace",
        "label": "address",
        "numberOfBytes": "20"
      },
      "t_array(t_address)7_storage": {
        "base": "t_address",
        "encoding": "inplace",
        "label": "address[7]",
        "numberOfBytes": "224"
      },
      "t_array(t_string_storage)7_storage": {
        "base": "t_string_storage",
        "encoding": "inplace",
        "label": "string[7]",
        "numberOfBytes": "224"
      },
      "t_array(t_struct(People)4_storage)dyn_storage": {
        "base": "t_struct(People)4_storage",
        "encoding": "dynamic_array",
        "label": "struct raffle.People[]",
        "numberOfBytes": "32"
      },
      "t_array(t_uint256)3_storage": {
        "base": "t_uint256",
        "encoding": "inplace",
        "label": "uint256[3]",
        "numberOfBytes": "96"
      },
      "t_array(t_uint256)7_storage": {
        "base": "t_uint256",
        "encoding": "inplace",
        "label": "uint256[7]",
        "numberOfBytes": "224"
      },
      "t_mapping(t_address,t_string_storage)": {
        "encoding": "mapping",
        "key": "t_address",
        "label": "mapping(address => string)",
        "numberOfBytes": "32",
        "value": "t_string_storage"
      },
      "t_mapping(t_uint256,t_address)": {
        "encoding": "mapping",
        "key": "t_uint256",
        "label": "mapping(uint256 => address)",
        "numberOfBytes": "32",
        "value": "t_address"
      },
      "t_mapping(t_uint256,t_string_storage)": {
        "encoding": "mapping",
        "key": "t_uint256",
        "label": "mapping(uint256 => string)",
        "numberOfBytes": "32",
        "value": "t_string_storage"
      },
      "t_string_storage": {
        "encoding": "bytes",
        "label": "string",
        "numberOfBytes": "32"
      },
      "t_struct(People)4_storage": {
        "encoding": "inplace",
        "label": "struct raffle.People",
        "members": [
          {
            "astId": 3,
            "contract": "./contracts/Main.sol:raffle",
            "label": "name",
            "offset": 0,
            "slot": "0",
            "type": "t_string_storage"
          }
        ],
        "numberOfBytes": "32"
      },
      "t_uint256": {
        "encoding": "inplace",
        "label": "uint256",
        "numberOfBytes": "32"
      }
    }
  },
  "userdoc": {
    "kind": "user",
    "methods": {},
    "version": 1
  }
}